{
  "address": "0xDBe9ac17528579596B138b580C9D14104e0d7F6b",
  "abi": [
    {
      "inputs": [
        {
          "internalType": "address",
          "name": "_vault",
          "type": "address"
        },
        {
          "internalType": "address",
          "name": "_governance",
          "type": "address"
        }
      ],
      "stateMutability": "nonpayable",
      "type": "constructor"
    },
    {
      "inputs": [
        {
          "internalType": "address",
          "name": "receiver",
          "type": "address"
        }
      ],
      "name": "availableDepositLimit",
      "outputs": [
        {
          "internalType": "uint256",
          "name": "",
          "type": "uint256"
        }
      ],
      "stateMutability": "view",
      "type": "function"
    },
    {
      "inputs": [],
      "name": "governance",
      "outputs": [
        {
          "internalType": "address",
          "name": "",
          "type": "address"
        }
      ],
      "stateMutability": "view",
      "type": "function"
    },
    {
      "inputs": [],
      "name": "limitDeposit",
      "outputs": [
        {
          "internalType": "uint256",
          "name": "",
          "type": "uint256"
        }
      ],
      "stateMutability": "view",
      "type": "function"
    },
    {
      "inputs": [
        {
          "internalType": "uint256",
          "name": "_limitDeposit",
          "type": "uint256"
        }
      ],
      "name": "setLimitEachUser",
      "outputs": [],
      "stateMutability": "nonpayable",
      "type": "function"
    },
    {
      "inputs": [],
      "name": "vault",
      "outputs": [
        {
          "internalType": "address",
          "name": "",
          "type": "address"
        }
      ],
      "stateMutability": "view",
      "type": "function"
    }
  ],
  "transactionHash": "0x2863f838ba3fcf082a7b0a103b85880f741c6cbb58e468bee016ae9e37eb7dac",
  "args": [
    "0x77751af05A15D066F49579e08Cd9992C62987825",
    "0xf39Fd6e51aad88F6F4ce6aB8827279cffFb92266"
  ],
  "numDeployments": 1,
  "solcInputHash": "564f110c153dee3f0c216c315af95c2b",
  "bytecode": "0x60803461009357601f61039538819003918201601f19168301916001600160401b0383118484101761009857808492604094855283398101031261009357610052602061004b836100ae565b92016100ae565b600180546001600160a01b039384166001600160a01b031991821617909155600019600255600080549290931691161790556040516102d290816100c38239f35b600080fd5b634e487b7160e01b600052604160045260246000fd5b51906001600160a01b03821682036100935756fe608060408181526004918236101561001657600080fd5b600092833560e01c9182633bfd3efa146102485750816346aa2f12146101155781635aa6e675146100ed578163f2d6ecd314610087575063fbfa77cf1461005c57600080fd5b3461008357816003193601126100835760015490516001600160a01b039091168152602090f35b5080fd5b919050346100e95760203660031901126100e95782546001600160a01b031633036100b457503560025580f35b906020606492519162461bcd60e51b8352820152600f60248201526e6f6e6c7920676f7665726e616e636560881b6044820152fd5b8280fd5b505034610083578160031936011261008357905490516001600160a01b039091168152602090f35b9050346100e957602092836003193601126102455781356001600160a01b0381811693918490036100e95760015416928451906370a0823160e01b8252828201528581602481875afa90811561023b57908691849161020c575b5060248651809681936303d1689d60e11b8352868301525afa9283156102025782936101d3575b5060025492808411156101c95783039283116101b6575050905b51908152f35b634e487b7160e01b825260119052602490fd5b50509050906101b0565b9092508481813d83116101fb575b6101eb8183610264565b8101031261008357519138610196565b503d6101e1565b84513d84823e3d90fd5b82819392503d8311610234575b6102238183610264565b810103126100e9578590513861016f565b503d610219565b85513d85823e3d90fd5b80fd5b8490346100835781600319360112610083576020906002548152f35b90601f8019910116810190811067ffffffffffffffff82111761028657604052565b634e487b7160e01b600052604160045260246000fdfea2646970667358221220d4059ca8f32ac3ca8e961cb92287ad327d04ebbe6ddb728ca2412146641c76a864736f6c63430008180033",
  "devdoc": {
    "kind": "dev",
    "methods": {},
    "version": 1
  },
  "userdoc": {
    "kind": "user",
    "methods": {},
    "version": 1
  },
  "storageLayout": {
    "storage": [
      {
        "astId": 10255,
        "contract": "contracts/modules/DepositLimitModule.sol:DepositLimitModule",
        "label": "governance",
        "offset": 0,
        "slot": "0",
        "type": "t_address"
      },
      {
        "astId": 10257,
        "contract": "contracts/modules/DepositLimitModule.sol:DepositLimitModule",
        "label": "vault",
        "offset": 0,
        "slot": "1",
        "type": "t_address"
      },
      {
        "astId": 10259,
        "contract": "contracts/modules/DepositLimitModule.sol:DepositLimitModule",
        "label": "limitDeposit",
        "offset": 0,
        "slot": "2",
        "type": "t_uint256"
      }
    ],
    "types": {
      "t_address": {
        "encoding": "inplace",
        "label": "address",
        "numberOfBytes": "20"
      },
      "t_uint256": {
        "encoding": "inplace",
        "label": "uint256",
        "numberOfBytes": "32"
      }
    }
  }
}