{
  "address": "0x648672D44b2cD25aaF418E2292ee75a0d757Ab67",
  "abi": [
    {
      "inputs": [
        {
          "internalType": "address",
          "name": "spender",
          "type": "address"
        },
        {
          "internalType": "uint256",
          "name": "allowance",
          "type": "uint256"
        },
        {
          "internalType": "uint256",
          "name": "needed",
          "type": "uint256"
        }
      ],
      "name": "ERC20InsufficientAllowance",
      "type": "error"
    },
    {
      "inputs": [
        {
          "internalType": "address",
          "name": "sender",
          "type": "address"
        },
        {
          "internalType": "uint256",
          "name": "balance",
          "type": "uint256"
        },
        {
          "internalType": "uint256",
          "name": "needed",
          "type": "uint256"
        }
      ],
      "name": "ERC20InsufficientBalance",
      "type": "error"
    },
    {
      "inputs": [
        {
          "internalType": "address",
          "name": "approver",
          "type": "address"
        }
      ],
      "name": "ERC20InvalidApprover",
      "type": "error"
    },
    {
      "inputs": [
        {
          "internalType": "address",
          "name": "receiver",
          "type": "address"
        }
      ],
      "name": "ERC20InvalidReceiver",
      "type": "error"
    },
    {
      "inputs": [
        {
          "internalType": "address",
          "name": "sender",
          "type": "address"
        }
      ],
      "name": "ERC20InvalidSender",
      "type": "error"
    },
    {
      "inputs": [
        {
          "internalType": "address",
          "name": "spender",
          "type": "address"
        }
      ],
      "name": "ERC20InvalidSpender",
      "type": "error"
    },
    {
      "inputs": [
        {
          "internalType": "address",
          "name": "receiver",
          "type": "address"
        },
        {
          "internalType": "uint256",
          "name": "assets",
          "type": "uint256"
        },
        {
          "internalType": "uint256",
          "name": "max",
          "type": "uint256"
        }
      ],
      "name": "ERC4626ExceededMaxDeposit",
      "type": "error"
    },
    {
      "inputs": [
        {
          "internalType": "address",
          "name": "receiver",
          "type": "address"
        },
        {
          "internalType": "uint256",
          "name": "shares",
          "type": "uint256"
        },
        {
          "internalType": "uint256",
          "name": "max",
          "type": "uint256"
        }
      ],
      "name": "ERC4626ExceededMaxMint",
      "type": "error"
    },
    {
      "inputs": [
        {
          "internalType": "address",
          "name": "owner",
          "type": "address"
        },
        {
          "internalType": "uint256",
          "name": "shares",
          "type": "uint256"
        },
        {
          "internalType": "uint256",
          "name": "max",
          "type": "uint256"
        }
      ],
      "name": "ERC4626ExceededMaxRedeem",
      "type": "error"
    },
    {
      "inputs": [
        {
          "internalType": "address",
          "name": "owner",
          "type": "address"
        },
        {
          "internalType": "uint256",
          "name": "assets",
          "type": "uint256"
        },
        {
          "internalType": "uint256",
          "name": "max",
          "type": "uint256"
        }
      ],
      "name": "ERC4626ExceededMaxWithdraw",
      "type": "error"
    },
    {
      "inputs": [],
      "name": "InvalidInitialization",
      "type": "error"
    },
    {
      "inputs": [],
      "name": "NotInitializing",
      "type": "error"
    },
    {
      "inputs": [
        {
          "internalType": "address",
          "name": "token",
          "type": "address"
        }
      ],
      "name": "SafeERC20FailedOperation",
      "type": "error"
    },
    {
      "anonymous": false,
      "inputs": [
        {
          "indexed": true,
          "internalType": "address",
          "name": "owner",
          "type": "address"
        },
        {
          "indexed": true,
          "internalType": "address",
          "name": "spender",
          "type": "address"
        },
        {
          "indexed": false,
          "internalType": "uint256",
          "name": "value",
          "type": "uint256"
        }
      ],
      "name": "Approval",
      "type": "event"
    },
    {
      "anonymous": false,
      "inputs": [
        {
          "indexed": true,
          "internalType": "address",
          "name": "sender",
          "type": "address"
        },
        {
          "indexed": true,
          "internalType": "address",
          "name": "owner",
          "type": "address"
        },
        {
          "indexed": false,
          "internalType": "uint256",
          "name": "assets",
          "type": "uint256"
        },
        {
          "indexed": false,
          "internalType": "uint256",
          "name": "shares",
          "type": "uint256"
        }
      ],
      "name": "Deposit",
      "type": "event"
    },
    {
      "anonymous": false,
      "inputs": [
        {
          "indexed": false,
          "internalType": "uint64",
          "name": "version",
          "type": "uint64"
        }
      ],
      "name": "Initialized",
      "type": "event"
    },
    {
      "anonymous": false,
      "inputs": [
        {
          "indexed": true,
          "internalType": "address",
          "name": "from",
          "type": "address"
        },
        {
          "indexed": true,
          "internalType": "address",
          "name": "to",
          "type": "address"
        },
        {
          "indexed": false,
          "internalType": "uint256",
          "name": "value",
          "type": "uint256"
        }
      ],
      "name": "Transfer",
      "type": "event"
    },
    {
      "anonymous": false,
      "inputs": [
        {
          "indexed": true,
          "internalType": "address",
          "name": "sender",
          "type": "address"
        },
        {
          "indexed": true,
          "internalType": "address",
          "name": "receiver",
          "type": "address"
        },
        {
          "indexed": true,
          "internalType": "address",
          "name": "owner",
          "type": "address"
        },
        {
          "indexed": false,
          "internalType": "uint256",
          "name": "assets",
          "type": "uint256"
        },
        {
          "indexed": false,
          "internalType": "uint256",
          "name": "shares",
          "type": "uint256"
        }
      ],
      "name": "Withdraw",
      "type": "event"
    },
    {
      "inputs": [],
      "name": "agent",
      "outputs": [
        {
          "internalType": "address",
          "name": "",
          "type": "address"
        }
      ],
      "stateMutability": "view",
      "type": "function"
    },
    {
      "inputs": [
        {
          "internalType": "address",
          "name": "owner",
          "type": "address"
        },
        {
          "internalType": "address",
          "name": "spender",
          "type": "address"
        }
      ],
      "name": "allowance",
      "outputs": [
        {
          "internalType": "uint256",
          "name": "",
          "type": "uint256"
        }
      ],
      "stateMutability": "view",
      "type": "function"
    },
    {
      "inputs": [
        {
          "internalType": "address",
          "name": "spender",
          "type": "address"
        },
        {
          "internalType": "uint256",
          "name": "value",
          "type": "uint256"
        }
      ],
      "name": "approve",
      "outputs": [
        {
          "internalType": "bool",
          "name": "",
          "type": "bool"
        }
      ],
      "stateMutability": "nonpayable",
      "type": "function"
    },
    {
      "inputs": [],
      "name": "asset",
      "outputs": [
        {
          "internalType": "address",
          "name": "",
          "type": "address"
        }
      ],
      "stateMutability": "view",
      "type": "function"
    },
    {
      "inputs": [
        {
          "internalType": "address",
          "name": "account",
          "type": "address"
        }
      ],
      "name": "balanceOf",
      "outputs": [
        {
          "internalType": "uint256",
          "name": "",
          "type": "uint256"
        }
      ],
      "stateMutability": "view",
      "type": "function"
    },
    {
      "inputs": [
        {
          "internalType": "uint256",
          "name": "shares",
          "type": "uint256"
        }
      ],
      "name": "convertToAssets",
      "outputs": [
        {
          "internalType": "uint256",
          "name": "",
          "type": "uint256"
        }
      ],
      "stateMutability": "view",
      "type": "function"
    },
    {
      "inputs": [
        {
          "internalType": "uint256",
          "name": "assets",
          "type": "uint256"
        }
      ],
      "name": "convertToShares",
      "outputs": [
        {
          "internalType": "uint256",
          "name": "",
          "type": "uint256"
        }
      ],
      "stateMutability": "view",
      "type": "function"
    },
    {
      "inputs": [],
      "name": "decimals",
      "outputs": [
        {
          "internalType": "uint8",
          "name": "",
          "type": "uint8"
        }
      ],
      "stateMutability": "view",
      "type": "function"
    },
    {
      "inputs": [
        {
          "internalType": "uint256",
          "name": "assets",
          "type": "uint256"
        },
        {
          "internalType": "address",
          "name": "receiver",
          "type": "address"
        }
      ],
      "name": "deposit",
      "outputs": [
        {
          "internalType": "uint256",
          "name": "",
          "type": "uint256"
        }
      ],
      "stateMutability": "nonpayable",
      "type": "function"
    },
    {
      "inputs": [],
      "name": "depositLimit",
      "outputs": [
        {
          "internalType": "uint256",
          "name": "",
          "type": "uint256"
        }
      ],
      "stateMutability": "view",
      "type": "function"
    },
    {
      "inputs": [],
      "name": "governance",
      "outputs": [
        {
          "internalType": "address",
          "name": "",
          "type": "address"
        }
      ],
      "stateMutability": "view",
      "type": "function"
    },
    {
      "inputs": [],
      "name": "harvest",
      "outputs": [],
      "stateMutability": "nonpayable",
      "type": "function"
    },
    {
      "inputs": [
        {
          "internalType": "address",
          "name": "_vault",
          "type": "address"
        },
        {
          "internalType": "address",
          "name": "_governance",
          "type": "address"
        },
        {
          "internalType": "address",
          "name": "_agent",
          "type": "address"
        },
        {
          "internalType": "contract IERC20",
          "name": "_asset",
          "type": "address"
        },
        {
          "internalType": "string",
          "name": "name_",
          "type": "string"
        },
        {
          "internalType": "string",
          "name": "symbol_",
          "type": "string"
        }
      ],
      "name": "initialize",
      "outputs": [],
      "stateMutability": "nonpayable",
      "type": "function"
    },
    {
      "inputs": [
        {
          "internalType": "uint256",
          "name": "amount",
          "type": "uint256"
        }
      ],
      "name": "lock",
      "outputs": [],
      "stateMutability": "nonpayable",
      "type": "function"
    },
    {
      "inputs": [
        {
          "internalType": "uint256",
          "name": "amount",
          "type": "uint256"
        }
      ],
      "name": "loss",
      "outputs": [],
      "stateMutability": "nonpayable",
      "type": "function"
    },
    {
      "inputs": [
        {
          "internalType": "address",
          "name": "owner",
          "type": "address"
        }
      ],
      "name": "maxDeposit",
      "outputs": [
        {
          "internalType": "uint256",
          "name": "",
          "type": "uint256"
        }
      ],
      "stateMutability": "view",
      "type": "function"
    },
    {
      "inputs": [
        {
          "internalType": "address",
          "name": "",
          "type": "address"
        }
      ],
      "name": "maxMint",
      "outputs": [
        {
          "internalType": "uint256",
          "name": "",
          "type": "uint256"
        }
      ],
      "stateMutability": "view",
      "type": "function"
    },
    {
      "inputs": [
        {
          "internalType": "address",
          "name": "owner",
          "type": "address"
        }
      ],
      "name": "maxRedeem",
      "outputs": [
        {
          "internalType": "uint256",
          "name": "",
          "type": "uint256"
        }
      ],
      "stateMutability": "view",
      "type": "function"
    },
    {
      "inputs": [
        {
          "internalType": "address",
          "name": "owner",
          "type": "address"
        }
      ],
      "name": "maxWithdraw",
      "outputs": [
        {
          "internalType": "uint256",
          "name": "",
          "type": "uint256"
        }
      ],
      "stateMutability": "view",
      "type": "function"
    },
    {
      "inputs": [
        {
          "internalType": "uint256",
          "name": "shares",
          "type": "uint256"
        },
        {
          "internalType": "address",
          "name": "receiver",
          "type": "address"
        }
      ],
      "name": "mint",
      "outputs": [
        {
          "internalType": "uint256",
          "name": "",
          "type": "uint256"
        }
      ],
      "stateMutability": "nonpayable",
      "type": "function"
    },
    {
      "inputs": [],
      "name": "name",
      "outputs": [
        {
          "internalType": "string",
          "name": "",
          "type": "string"
        }
      ],
      "stateMutability": "view",
      "type": "function"
    },
    {
      "inputs": [
        {
          "internalType": "uint256",
          "name": "assets",
          "type": "uint256"
        }
      ],
      "name": "previewDeposit",
      "outputs": [
        {
          "internalType": "uint256",
          "name": "",
          "type": "uint256"
        }
      ],
      "stateMutability": "view",
      "type": "function"
    },
    {
      "inputs": [
        {
          "internalType": "uint256",
          "name": "shares",
          "type": "uint256"
        }
      ],
      "name": "previewMint",
      "outputs": [
        {
          "internalType": "uint256",
          "name": "",
          "type": "uint256"
        }
      ],
      "stateMutability": "view",
      "type": "function"
    },
    {
      "inputs": [
        {
          "internalType": "uint256",
          "name": "shares",
          "type": "uint256"
        }
      ],
      "name": "previewRedeem",
      "outputs": [
        {
          "internalType": "uint256",
          "name": "",
          "type": "uint256"
        }
      ],
      "stateMutability": "view",
      "type": "function"
    },
    {
      "inputs": [
        {
          "internalType": "uint256",
          "name": "assets",
          "type": "uint256"
        }
      ],
      "name": "previewWithdraw",
      "outputs": [
        {
          "internalType": "uint256",
          "name": "",
          "type": "uint256"
        }
      ],
      "stateMutability": "view",
      "type": "function"
    },
    {
      "inputs": [
        {
          "internalType": "uint256",
          "name": "shares",
          "type": "uint256"
        },
        {
          "internalType": "address",
          "name": "receiver",
          "type": "address"
        },
        {
          "internalType": "address",
          "name": "owner",
          "type": "address"
        }
      ],
      "name": "redeem",
      "outputs": [
        {
          "internalType": "uint256",
          "name": "",
          "type": "uint256"
        }
      ],
      "stateMutability": "nonpayable",
      "type": "function"
    },
    {
      "inputs": [
        {
          "internalType": "address",
          "name": "_agent",
          "type": "address"
        }
      ],
      "name": "setAgent",
      "outputs": [],
      "stateMutability": "nonpayable",
      "type": "function"
    },
    {
      "inputs": [
        {
          "internalType": "address",
          "name": "_governance",
          "type": "address"
        }
      ],
      "name": "setGovernance",
      "outputs": [],
      "stateMutability": "nonpayable",
      "type": "function"
    },
    {
      "inputs": [
        {
          "internalType": "uint256",
          "name": "amount",
          "type": "uint256"
        }
      ],
      "name": "setLoss",
      "outputs": [],
      "stateMutability": "nonpayable",
      "type": "function"
    },
    {
      "inputs": [
        {
          "internalType": "uint256",
          "name": "_depositLimit",
          "type": "uint256"
        }
      ],
      "name": "setMaxDebt",
      "outputs": [],
      "stateMutability": "nonpayable",
      "type": "function"
    },
    {
      "inputs": [
        {
          "internalType": "address",
          "name": "_vault",
          "type": "address"
        }
      ],
      "name": "setVault",
      "outputs": [],
      "stateMutability": "nonpayable",
      "type": "function"
    },
    {
      "inputs": [],
      "name": "symbol",
      "outputs": [
        {
          "internalType": "string",
          "name": "",
          "type": "string"
        }
      ],
      "stateMutability": "view",
      "type": "function"
    },
    {
      "inputs": [],
      "name": "totalAssets",
      "outputs": [
        {
          "internalType": "uint256",
          "name": "",
          "type": "uint256"
        }
      ],
      "stateMutability": "view",
      "type": "function"
    },
    {
      "inputs": [],
      "name": "totalIdle",
      "outputs": [
        {
          "internalType": "uint256",
          "name": "",
          "type": "uint256"
        }
      ],
      "stateMutability": "view",
      "type": "function"
    },
    {
      "inputs": [],
      "name": "totalLocked",
      "outputs": [
        {
          "internalType": "uint256",
          "name": "",
          "type": "uint256"
        }
      ],
      "stateMutability": "view",
      "type": "function"
    },
    {
      "inputs": [],
      "name": "totalSupply",
      "outputs": [
        {
          "internalType": "uint256",
          "name": "",
          "type": "uint256"
        }
      ],
      "stateMutability": "view",
      "type": "function"
    },
    {
      "inputs": [
        {
          "internalType": "address",
          "name": "to",
          "type": "address"
        },
        {
          "internalType": "uint256",
          "name": "value",
          "type": "uint256"
        }
      ],
      "name": "transfer",
      "outputs": [
        {
          "internalType": "bool",
          "name": "",
          "type": "bool"
        }
      ],
      "stateMutability": "nonpayable",
      "type": "function"
    },
    {
      "inputs": [
        {
          "internalType": "address",
          "name": "from",
          "type": "address"
        },
        {
          "internalType": "address",
          "name": "to",
          "type": "address"
        },
        {
          "internalType": "uint256",
          "name": "value",
          "type": "uint256"
        }
      ],
      "name": "transferFrom",
      "outputs": [
        {
          "internalType": "bool",
          "name": "",
          "type": "bool"
        }
      ],
      "stateMutability": "nonpayable",
      "type": "function"
    },
    {
      "inputs": [],
      "name": "vault",
      "outputs": [
        {
          "internalType": "address",
          "name": "",
          "type": "address"
        }
      ],
      "stateMutability": "view",
      "type": "function"
    },
    {
      "inputs": [
        {
          "internalType": "uint256",
          "name": "assets",
          "type": "uint256"
        },
        {
          "internalType": "address",
          "name": "receiver",
          "type": "address"
        },
        {
          "internalType": "address",
          "name": "owner",
          "type": "address"
        }
      ],
      "name": "withdraw",
      "outputs": [
        {
          "internalType": "uint256",
          "name": "",
          "type": "uint256"
        }
      ],
      "stateMutability": "nonpayable",
      "type": "function"
    }
  ],
  "transactionHash": "0xff8a5372c733dadc9b0632dd0cb3bdd825aa3292d25c6c4d7d2d5bef280a53e0",
  "args": [],
  "numDeployments": 1,
  "solcInputHash": "564f110c153dee3f0c216c315af95c2b",
  "bytecode": "0x6080806040523461001657611c5d908161001c8239f35b600080fdfe6080604052600436101561001257600080fd5b60003560e01c806301e1d114146110b357806306fdde031461100f57806307a2d13a14610d8f578063095ea7b314610f5c5780630a28a47714610f3e57806318160ddd14610f1357806323b872dd14610edb578063313ce56714610e8b57806338d52e0f14610e55578063402d267d14610e315780634641257d14610d945780634cdad50614610d8f5780635689141214610d715780635aa6e67514610d485780636526941b14610d1a5780636817031b14610cc95780636e553f6514610c5257806370a0823114610c0c57806372ae4c3414610c075780637a1151c014610c075780639317c2001461067f57806394bf804d1461064c57806395d89b411461056a5780639aa7df941461054c578063a9059cbb1461051b578063ab033ea9146104d4578063b3d7f6b9146104b6578063b460af9414610420578063ba087652146103b3578063bcf685ed14610362578063c63d75b61461033c578063c6e6f5921461022b578063ce96cb77146102f5578063d905777e146102ca578063dd46706414610297578063dd62ed3e1461024e578063ecf7085814610230578063ef8b30f71461022b578063f5ff5c76146102025763fbfa77cf146101d457600080fd5b346101fd5760003660031901126101fd576000546040516001600160a01b039091168152602090f35b600080fd5b346101fd5760003660031901126101fd576002546040516001600160a01b039091168152602090f35b611246565b346101fd5760003660031901126101fd576020600354604051908152f35b346101fd5760403660031901126101fd5761026761113c565b610278610272611152565b91611321565b9060018060a01b03166000526020526020604060002054604051908152f35b346101fd5760203660031901126101fd576102c56004356102ba816004546112ab565b600455600554611264565b600555005b346101fd5760203660031901126101fd5760206102ed6102e861113c565b61135a565b604051908152f35b346101fd5760203660031901126101fd576001600160a01b0361031661113c565b16600052600080516020611b6883398151915260205260206102ed604060002054611462565b346101fd5760203660031901126101fd5761035561113c565b5060206040516000198152f35b346101fd5760203660031901126101fd5761037b61113c565b6001546001600160a01b03919061039590831633146112e4565b166bffffffffffffffffffffffff60a01b6002541617600255600080f35b346101fd576103c136611211565b906103cb8261135a565b8084116103ec5750826102ed916103e3602095611462565b93849133611855565b604051632e52afbb60e21b81526001600160a01b039390931660048401526024830193909352506044810191909152606490fd5b346101fd5761042e36611211565b9061046161045c8360018060a01b0316600052600080516020611b6883398151915260205260406000205490565b611462565b80841161048257506102ed90836104796020956114c4565b93849233611855565b604051633fa733bb60e21b81526001600160a01b039390931660048401526024830193909352506044810191909152606490fd5b346101fd5760203660031901126101fd5760206102ed6004356113e1565b346101fd5760203660031901126101fd576104ed61113c565b600154906001600160a01b039061050733838516146112e4565b6001600160a01b0319909216911617600155005b346101fd5760403660031901126101fd5761054161053761113c565b6024359033611630565b602060405160018152f35b346101fd5760003660031901126101fd576020600454604051908152f35b346101fd5760003660031901126101fd576040516000600080516020611b8883398151915280549061059b82611271565b8085529160209160019182811690811561061f57506001146105d8575b6105d4866105c88188038261118c565b604051918291826110d5565b0390f35b60009081529350600080516020611be88339815191525b83851061060c575050505081016020016105c8826105d4856105b8565b80548686018401529382019381016105ef565b90508695506105d4969350602092506105c894915060ff191682840152151560051b8201019293856105b8565b346101fd5760403660031901126101fd5760206004356102ed61066d611152565b91610677816113e1565b80933361171e565b346101fd5760c03660031901126101fd5761069861113c565b6106a0611152565b90604435906001600160a01b03821682036101fd576064356001600160a01b03811690036101fd5760843567ffffffffffffffff81116101fd576106e89036906004016111ca565b9160a43567ffffffffffffffff81116101fd576107099036906004016111ca565b93600080516020611c08833981519152549367ffffffffffffffff851680159081610bf7575b6001149081610bed575b159081610be4575b50610bd257600167ffffffffffffffff19861617600080516020611c088339815191525560ff8560401c1615610ba5575b61077a6119e3565b6107826119e3565b80519067ffffffffffffffff8211610a715781906107ae600080516020611b4883398151915254611271565b601f8111610b24575b50602090601f8311600114610a9257600092610a87575b50508160011b916000199060031b1c191617600080516020611b48833981519152555b84519467ffffffffffffffff8611610a715761081b600080516020611b8883398151915254611271565b601f81116109fb575b50602090601f871160011461096b5760ff969160009183610960575b50508160011b916000199060031b1c191617600080516020611b88833981519152555b61086b6119e3565b6108736119e3565b61087e606435611a6e565b9015610958575b600080516020611bc883398151915280546001600160a81b03191691871660a01b919091176064356001600160a01b0390811691909117909155600080546001600160a01b03199081169583169590951790556001805485169282169290921790915560028054909316911617905560401c16156108ff57005b68ff000000000000000019600080516020611c088339815191525416600080516020611c08833981519152557fc7f505b2f371ae2175ee4913f4499e1f2633a7b5936321eed1cdaeb6115181d2602060405160018152a1005b506012610885565b015190508780610840565b90601f19871691600080516020611b88833981519152600052600080516020611be88339815191529260005b8181106109e3575091600193918960ff9a94106109ca575b505050811b01600080516020611b8883398151915255610863565b015160001960f88460031b161c191690558780806109af565b92936020600181928786015181550195019301610997565b600080516020611b88833981519152600052601f870160051c600080516020611be88339815191520160208810610a5c575b601f820160051c600080516020611be8833981519152018110610a505750610824565b60008155600101610a2d565b50600080516020611be8833981519152610a2d565b634e487b7160e01b600052604160045260246000fd5b0151905087806107ce565b9250600080516020611b48833981519152600052600080516020611b28833981519152906000935b601f1984168510610b09576001945083601f19811610610af0575b505050811b01600080516020611b48833981519152556107f1565b015160001960f88460031b161c19169055878080610ad5565b81810151835560209485019460019093019290910190610aba565b909150600080516020611b48833981519152600052601f830160051c600080516020611b288339815191520160208410610b90575b908392915b601f820160051c600080516020611b28833981519152018110610b8157506107b7565b60008155849350600101610b5e565b50600080516020611b28833981519152610b59565b68ffffffffffffffffff1985166801000000000000000117600080516020611c0883398151915255610772565b60405163f92ee8a960e01b8152600490fd5b90501587610741565b303b159150610739565b604087901c60ff1615915061072f565b611168565b346101fd5760203660031901126101fd5760206102ed610c2a61113c565b6001600160a01b03166000908152600080516020611b68833981519152602052604090205490565b346101fd5760403660031901126101fd57600435610c6e611152565b610c766112b8565b808311610c96576020836102ed84610c8d8361150f565b9283913361171e565b604051633c8097d960e11b81526001600160a01b0392909216600483015260248201929092526044810191909152606490fd5b346101fd5760203660031901126101fd57610ce261113c565b6001546001600160a01b039190610cfc90831633146112e4565b166bffffffffffffffffffffffff60a01b6000541617600055600080f35b346101fd5760203660031901126101fd57610d4060018060a01b036001541633146112e4565b600435600355005b346101fd5760003660031901126101fd576001546040516001600160a01b039091168152602090f35b346101fd5760003660031901126101fd576020600554604051908152f35b61111e565b346101fd5760003660031901126101fd57600080516020611bc8833981519152546040516370a0823160e01b815230600482015290602090829060249082906001600160a01b03165afa908115610e2557600091610df3575b50600455005b90506020813d602011610e1d575b81610e0e6020938361118c565b810103126101fd575181610ded565b3d9150610e01565b6040513d6000823e3d90fd5b346101fd5760203660031901126101fd57610e4a61113c565b5060206102ed6112b8565b346101fd5760003660031901126101fd57600080516020611bc8833981519152546040516001600160a01b039091168152602090f35b346101fd5760003660031901126101fd5760ff600080516020611bc88339815191525460a01c1660ff8111610ec557602090604051908152f35b634e487b7160e01b600052601160045260246000fd5b346101fd5760603660031901126101fd57610541610ef761113c565b610eff611152565b60443591610f0e83338361155a565b611630565b346101fd5760003660031901126101fd576020600080516020611ba883398151915254604051908152f35b346101fd5760203660031901126101fd5760206102ed6004356114c4565b346101fd5760403660031901126101fd57610f7561113c565b602435903315610ff6576001600160a01b0316908115610fdd57610f9833611321565b82600052602052806040600020556040519081527f8c5be1e5ebec7d5bd14f71427d1e84f3dd0314c0f7b2291e5b200ac8c7c3b92560203392a3602060405160018152f35b604051634a1406b160e11b815260006004820152602490fd5b60405163e602df0560e01b815260006004820152602490fd5b346101fd5760003660031901126101fd576040516000600080516020611b4883398151915280549061104082611271565b8085529160209160019182811690811561061f575060011461106c576105d4866105c88188038261118c565b60009081529350600080516020611b288339815191525b8385106110a0575050505081016020016105c8826105d4856105b8565b8054868601840152938201938101611083565b346101fd5760003660031901126101fd5760206102ed60045460055490611264565b6020808252825181830181905290939260005b82811061110a57505060409293506000838284010152601f8019910116010190565b8181018601518482016040015285016110e8565b346101fd5760203660031901126101fd5760206102ed600435611462565b600435906001600160a01b03821682036101fd57565b602435906001600160a01b03821682036101fd57565b346101fd5760203660031901126101fd576111876004356004546112ab565b600455005b90601f8019910116810190811067ffffffffffffffff821117610a7157604052565b67ffffffffffffffff8111610a7157601f01601f191660200190565b81601f820112156101fd578035906111e1826111ae565b926111ef604051948561118c565b828452602083830101116101fd57816000926020809301838601378301015290565b60609060031901126101fd57600435906001600160a01b039060243582811681036101fd579160443590811681036101fd5790565b346101fd5760203660031901126101fd5760206102ed60043561150f565b91908201809211610ec557565b90600182811c921680156112a1575b602083101461128b57565b634e487b7160e01b600052602260045260246000fd5b91607f1691611280565b91908203918211610ec557565b60035480156112dd576112d16112da91600454906112ab565b600554906112ab565b90565b5060001990565b156112eb57565b60405162461bcd60e51b815260206004820152600e60248201526d4e6f7420676f7665726e616e636560901b6044820152606490fd5b6001600160a01b031660009081527f52c63247e1f47db19d5ce0460030c497f067ca4cebf71ba98eeadabe20bace016020526040902090565b6113656004546114c4565b9060018060a01b0316600052600080516020611b6883398151915260205260406000205490818082109118021890565b81810292918115918404141715610ec557565b81156113b2570490565b634e487b7160e01b600052601260045260246000fd5b81156113b2570690565b6000198114610ec55760010190565b6000198114801561145a575b6112da57600080516020611ba8833981519152549061141160045460055490611264565b908215611446576114369161142591611395565b9161143081846113a8565b926113c8565b61143d5790565b6112da906113d2565b91505080156001828004141715610ec55790565b5080156113ed565b600019811480156114bc575b6112da57600080516020611ba88339815191525461149160045460055490611264565b81156114a9576114a4906112da93611395565b6113a8565b505080800460011481151715610ec55790565b50801561146e565b60001981148015611507575b6112da57600080516020611ba8833981519152546114f360045460055490611264565b918115611446576114369161142591611395565b5080156114d0565b60001981148015611552575b6112da57600080516020611ba88339815191525461153e60045460055490611264565b9080156114a9576114a4906112da93611395565b50801561151b565b919061156583611321565b9260018060a01b0390818316916000958387526020526040862054936000198510611594575b50505050505050565b8585106115ff57508116156115e65781156115cd57906115b76040949392611321565b908552602052039120553880808080808061158b565b604051634a1406b160e11b815260048101869052602490fd5b60405163e602df0560e01b815260048101869052602490fd5b604051637dc7a0d960e11b81526001600160a01b039190911660048201526024810185905260448101869052606490fd5b916001600160a01b0380841692831561170557169283156116ec57600090838252600080516020611b68833981519152806020526040832054918483106116b9575082847fddf252ad1be2c89b69c2b068fc378daa952ba7f163c4a11628f55a4df523b3ef959360409388602097528652038282205586815220818154019055604051908152a3565b60405163391434e360e21b81526001600160a01b0391909116600482015260248101929092525060448101839052606490fd5b60405163ec442f0560e01b815260006004820152602490fd5b604051634b637e8f60e11b815260006004820152602490fd5b600080516020611bc883398151915254604080516323b872dd60e01b60208201526001600160a01b03938416602482018190523060448301526064808301889052825295919491939260a082019190841667ffffffffffffffff831182841017610a715761178d928752611a12565b61179983600454611264565b6004551693841561183d57907fdcbc1c05240f31ff3ad067ef1ee35ce4997762752e3a095284754544f4c709d79291600080516020611ba88339815191526117e2828254611264565b905585600052600080516020611b68833981519152602052826000208181540190558560007fddf252ad1be2c89b69c2b068fc378daa952ba7f163c4a11628f55a4df523b3ef60208651858152a382519182526020820152a3565b825163ec442f0560e01b815260006004820152602490fd5b91909392611865816004546112ab565b60045560018060a01b03938483169585851694828887036119d2575b5050861561170557600095878752600080516020611b68833981519152948560205260409586892054918583106119a057509084918a8a526020520385882055600080516020611ba883398151915283815403905586887fddf252ad1be2c89b69c2b068fc378daa952ba7f163c4a11628f55a4df523b3ef60208851878152a380600080516020611bc883398151915254169085519263a9059cbb60e01b6020850152169687602484015284604484015260448352608083019083821067ffffffffffffffff83111761198c575085527ffbde797d201c681b91056529119e0b02407c7bb96a4a2c75c01fc9667232c8db9493929161197f91611a12565b82519182526020820152a4565b634e487b7160e01b81526041600452602490fd5b875163391434e360e21b81526001600160a01b0391909116600482015260248101929092525060448101849052606490fd5b6119dc918661155a565b3882611881565b60ff600080516020611c088339815191525460401c1615611a0057565b604051631afcd79f60e31b8152600490fd5b906000602091828151910182855af115610e25576000513d611a6557506001600160a01b0381163b155b611a435750565b604051635274afe760e01b81526001600160a01b039091166004820152602490fd5b60011415611a3c565b90604051602081019063313ce56760e01b8252600481526040810181811067ffffffffffffffff821117610a71576040525160009384928392916001600160a01b03165afa3d15611b1f573d90611ac4826111ae565b91611ad2604051938461118c565b82523d84602084013e5b80611b13575b611aec575b508190565b602081805181010312611b0f576020015160ff8111611ae7576001925060ff1690565b8280fd5b50602081511015611ae2565b606090611adc56fe2ae08a8e29253f69ac5d979a101956ab8f8d9d7ded63fa7a83b16fc47648eab052c63247e1f47db19d5ce0460030c497f067ca4cebf71ba98eeadabe20bace0352c63247e1f47db19d5ce0460030c497f067ca4cebf71ba98eeadabe20bace0052c63247e1f47db19d5ce0460030c497f067ca4cebf71ba98eeadabe20bace0452c63247e1f47db19d5ce0460030c497f067ca4cebf71ba98eeadabe20bace020773e532dfede91f04b12a73d3d2acd361424f41f76b4fb79f090161e36b4e0046a2803e59a4de4e7a4c574b1243f25977ac4c77d5a1a4a609b5394cebb4a2aaf0c57e16840df040f15088dc2f81fe391c3923bec73e23a9662efc9c229c6a00a26469706673582212204b3a126bb510506a311eff75d17814ed703a141dd7cf8072f0dc2d8e2c6576b064736f6c63430008180033",
  "devdoc": {
    "errors": {
      "ERC20InsufficientAllowance(address,uint256,uint256)": [
        {
          "details": "Indicates a failure with the `spender`s `allowance`. Used in transfers.",
          "params": {
            "allowance": "Amount of tokens a `spender` is allowed to operate with.",
            "needed": "Minimum amount required to perform a transfer.",
            "spender": "Address that may be allowed to operate on tokens without being their owner."
          }
        }
      ],
      "ERC20InsufficientBalance(address,uint256,uint256)": [
        {
          "details": "Indicates an error related to the current `balance` of a `sender`. Used in transfers.",
          "params": {
            "balance": "Current balance for the interacting account.",
            "needed": "Minimum amount required to perform a transfer.",
            "sender": "Address whose tokens are being transferred."
          }
        }
      ],
      "ERC20InvalidApprover(address)": [
        {
          "details": "Indicates a failure with the `approver` of a token to be approved. Used in approvals.",
          "params": {
            "approver": "Address initiating an approval operation."
          }
        }
      ],
      "ERC20InvalidReceiver(address)": [
        {
          "details": "Indicates a failure with the token `receiver`. Used in transfers.",
          "params": {
            "receiver": "Address to which tokens are being transferred."
          }
        }
      ],
      "ERC20InvalidSender(address)": [
        {
          "details": "Indicates a failure with the token `sender`. Used in transfers.",
          "params": {
            "sender": "Address whose tokens are being transferred."
          }
        }
      ],
      "ERC20InvalidSpender(address)": [
        {
          "details": "Indicates a failure with the `spender` to be approved. Used in approvals.",
          "params": {
            "spender": "Address that may be allowed to operate on tokens without being their owner."
          }
        }
      ],
      "ERC4626ExceededMaxDeposit(address,uint256,uint256)": [
        {
          "details": "Attempted to deposit more assets than the max amount for `receiver`."
        }
      ],
      "ERC4626ExceededMaxMint(address,uint256,uint256)": [
        {
          "details": "Attempted to mint more shares than the max amount for `receiver`."
        }
      ],
      "ERC4626ExceededMaxRedeem(address,uint256,uint256)": [
        {
          "details": "Attempted to redeem more shares than the max amount for `receiver`."
        }
      ],
      "ERC4626ExceededMaxWithdraw(address,uint256,uint256)": [
        {
          "details": "Attempted to withdraw more assets than the max amount for `receiver`."
        }
      ],
      "InvalidInitialization()": [
        {
          "details": "The contract is already initialized."
        }
      ],
      "NotInitializing()": [
        {
          "details": "The contract is not initializing."
        }
      ],
      "SafeERC20FailedOperation(address)": [
        {
          "details": "An operation with an ERC-20 token failed."
        }
      ]
    },
    "events": {
      "Approval(address,address,uint256)": {
        "details": "Emitted when the allowance of a `spender` for an `owner` is set by a call to {approve}. `value` is the new allowance."
      },
      "Initialized(uint64)": {
        "details": "Triggered when the contract has been initialized or reinitialized."
      },
      "Transfer(address,address,uint256)": {
        "details": "Emitted when `value` tokens are moved from one account (`from`) to another (`to`). Note that `value` may be zero."
      }
    },
    "kind": "dev",
    "methods": {
      "allowance(address,address)": {
        "details": "See {IERC20-allowance}."
      },
      "approve(address,uint256)": {
        "details": "See {IERC20-approve}. NOTE: If `value` is the maximum `uint256`, the allowance is not updated on `transferFrom`. This is semantically equivalent to an infinite approval. Requirements: - `spender` cannot be the zero address."
      },
      "asset()": {
        "details": "See {IERC4626-asset}. "
      },
      "balanceOf(address)": {
        "details": "See {IERC20-balanceOf}."
      },
      "convertToAssets(uint256)": {
        "details": "See {IERC4626-convertToAssets}. "
      },
      "convertToShares(uint256)": {
        "details": "See {IERC4626-convertToShares}. "
      },
      "decimals()": {
        "details": "Decimals are computed by adding the decimal offset on top of the underlying asset's decimals. This \"original\" value is cached during construction of the vault contract. If this read operation fails (e.g., the asset has not been created yet), a default of 18 is used to represent the underlying asset's decimals. See {IERC20Metadata-decimals}."
      },
      "deposit(uint256,address)": {
        "details": "See {IERC4626-deposit}. "
      },
      "maxMint(address)": {
        "details": "See {IERC4626-maxMint}. "
      },
      "maxRedeem(address)": {
        "details": "See {IERC4626-maxRedeem}. "
      },
      "maxWithdraw(address)": {
        "details": "See {IERC4626-maxWithdraw}. "
      },
      "mint(uint256,address)": {
        "details": "See {IERC4626-mint}. "
      },
      "name()": {
        "details": "Returns the name of the token."
      },
      "previewDeposit(uint256)": {
        "details": "See {IERC4626-previewDeposit}. "
      },
      "previewMint(uint256)": {
        "details": "See {IERC4626-previewMint}. "
      },
      "previewRedeem(uint256)": {
        "details": "See {IERC4626-previewRedeem}. "
      },
      "previewWithdraw(uint256)": {
        "details": "See {IERC4626-previewWithdraw}. "
      },
      "redeem(uint256,address,address)": {
        "details": "See {IERC4626-redeem}. "
      },
      "symbol()": {
        "details": "Returns the symbol of the token, usually a shorter version of the name."
      },
      "totalAssets()": {
        "details": "See {IERC4626-totalAssets}. "
      },
      "totalSupply()": {
        "details": "See {IERC20-totalSupply}."
      },
      "transfer(address,uint256)": {
        "details": "See {IERC20-transfer}. Requirements: - `to` cannot be the zero address. - the caller must have a balance of at least `value`."
      },
      "transferFrom(address,address,uint256)": {
        "details": "See {IERC20-transferFrom}. Skips emitting an {Approval} event indicating an allowance update. This is not required by the ERC. See {xref-ERC20-_approve-address-address-uint256-bool-}[_approve]. NOTE: Does not update the allowance if the current allowance is the maximum `uint256`. Requirements: - `from` and `to` cannot be the zero address. - `from` must have a balance of at least `value`. - the caller must have allowance for ``from``'s tokens of at least `value`."
      },
      "withdraw(uint256,address,address)": {
        "details": "See {IERC4626-withdraw}. "
      }
    },
    "version": 1
  },
  "userdoc": {
    "kind": "user",
    "methods": {},
    "version": 1
  },
  "storageLayout": {
    "storage": [
      {
        "astId": 16040,
        "contract": "contracts/mock/MockStrategy.sol:MockStrategy",
        "label": "vault",
        "offset": 0,
        "slot": "0",
        "type": "t_address"
      },
      {
        "astId": 16042,
        "contract": "contracts/mock/MockStrategy.sol:MockStrategy",
        "label": "governance",
        "offset": 0,
        "slot": "1",
        "type": "t_address"
      },
      {
        "astId": 16044,
        "contract": "contracts/mock/MockStrategy.sol:MockStrategy",
        "label": "agent",
        "offset": 0,
        "slot": "2",
        "type": "t_address"
      },
      {
        "astId": 9617,
        "contract": "contracts/mock/MockStrategy.sol:MockStrategy",
        "label": "depositLimit",
        "offset": 0,
        "slot": "3",
        "type": "t_uint256"
      },
      {
        "astId": 9619,
        "contract": "contracts/mock/MockStrategy.sol:MockStrategy",
        "label": "totalIdle",
        "offset": 0,
        "slot": "4",
        "type": "t_uint256"
      },
      {
        "astId": 9621,
        "contract": "contracts/mock/MockStrategy.sol:MockStrategy",
        "label": "totalLocked",
        "offset": 0,
        "slot": "5",
        "type": "t_uint256"
      }
    ],
    "types": {
      "t_address": {
        "encoding": "inplace",
        "label": "address",
        "numberOfBytes": "20"
      },
      "t_uint256": {
        "encoding": "inplace",
        "label": "uint256",
        "numberOfBytes": "32"
      }
    }
  }
}