{
  "address": "0x634C4773Ee59cC4398269C73c6233a7239b31953",
  "abi": [
    {
      "inputs": [],
      "name": "AccessControlBadConfirmation",
      "type": "error"
    },
    {
      "inputs": [
        {
          "internalType": "address",
          "name": "account",
          "type": "address"
        },
        {
          "internalType": "bytes32",
          "name": "neededRole",
          "type": "bytes32"
        }
      ],
      "name": "AccessControlUnauthorizedAccount",
      "type": "error"
    },
    {
      "inputs": [
        {
          "internalType": "address",
          "name": "spender",
          "type": "address"
        },
        {
          "internalType": "uint256",
          "name": "allowance",
          "type": "uint256"
        },
        {
          "internalType": "uint256",
          "name": "needed",
          "type": "uint256"
        }
      ],
      "name": "ERC20InsufficientAllowance",
      "type": "error"
    },
    {
      "inputs": [
        {
          "internalType": "address",
          "name": "sender",
          "type": "address"
        },
        {
          "internalType": "uint256",
          "name": "balance",
          "type": "uint256"
        },
        {
          "internalType": "uint256",
          "name": "needed",
          "type": "uint256"
        }
      ],
      "name": "ERC20InsufficientBalance",
      "type": "error"
    },
    {
      "inputs": [
        {
          "internalType": "address",
          "name": "approver",
          "type": "address"
        }
      ],
      "name": "ERC20InvalidApprover",
      "type": "error"
    },
    {
      "inputs": [
        {
          "internalType": "address",
          "name": "receiver",
          "type": "address"
        }
      ],
      "name": "ERC20InvalidReceiver",
      "type": "error"
    },
    {
      "inputs": [
        {
          "internalType": "address",
          "name": "sender",
          "type": "address"
        }
      ],
      "name": "ERC20InvalidSender",
      "type": "error"
    },
    {
      "inputs": [
        {
          "internalType": "address",
          "name": "spender",
          "type": "address"
        }
      ],
      "name": "ERC20InvalidSpender",
      "type": "error"
    },
    {
      "inputs": [
        {
          "internalType": "address",
          "name": "receiver",
          "type": "address"
        },
        {
          "internalType": "uint256",
          "name": "assets",
          "type": "uint256"
        },
        {
          "internalType": "uint256",
          "name": "max",
          "type": "uint256"
        }
      ],
      "name": "ERC4626ExceededMaxDeposit",
      "type": "error"
    },
    {
      "inputs": [
        {
          "internalType": "address",
          "name": "receiver",
          "type": "address"
        },
        {
          "internalType": "uint256",
          "name": "shares",
          "type": "uint256"
        },
        {
          "internalType": "uint256",
          "name": "max",
          "type": "uint256"
        }
      ],
      "name": "ERC4626ExceededMaxMint",
      "type": "error"
    },
    {
      "inputs": [
        {
          "internalType": "address",
          "name": "owner",
          "type": "address"
        },
        {
          "internalType": "uint256",
          "name": "shares",
          "type": "uint256"
        },
        {
          "internalType": "uint256",
          "name": "max",
          "type": "uint256"
        }
      ],
      "name": "ERC4626ExceededMaxRedeem",
      "type": "error"
    },
    {
      "inputs": [
        {
          "internalType": "address",
          "name": "owner",
          "type": "address"
        },
        {
          "internalType": "uint256",
          "name": "assets",
          "type": "uint256"
        },
        {
          "internalType": "uint256",
          "name": "max",
          "type": "uint256"
        }
      ],
      "name": "ERC4626ExceededMaxWithdraw",
      "type": "error"
    },
    {
      "inputs": [],
      "name": "InvalidInitialization",
      "type": "error"
    },
    {
      "inputs": [],
      "name": "NotInitializing",
      "type": "error"
    },
    {
      "inputs": [],
      "name": "ReentrancyGuardReentrantCall",
      "type": "error"
    },
    {
      "anonymous": false,
      "inputs": [
        {
          "indexed": true,
          "internalType": "address",
          "name": "owner",
          "type": "address"
        },
        {
          "indexed": true,
          "internalType": "address",
          "name": "spender",
          "type": "address"
        },
        {
          "indexed": false,
          "internalType": "uint256",
          "name": "value",
          "type": "uint256"
        }
      ],
      "name": "Approval",
      "type": "event"
    },
    {
      "anonymous": false,
      "inputs": [
        {
          "indexed": true,
          "internalType": "address",
          "name": "strategy",
          "type": "address"
        },
        {
          "indexed": false,
          "internalType": "uint256",
          "name": "amount",
          "type": "uint256"
        }
      ],
      "name": "DebtPurchased",
      "type": "event"
    },
    {
      "anonymous": false,
      "inputs": [
        {
          "indexed": true,
          "internalType": "address",
          "name": "strategy",
          "type": "address"
        },
        {
          "indexed": false,
          "internalType": "uint256",
          "name": "currentDebt",
          "type": "uint256"
        },
        {
          "indexed": false,
          "internalType": "uint256",
          "name": "newDebt",
          "type": "uint256"
        }
      ],
      "name": "DebtUpdated",
      "type": "event"
    },
    {
      "anonymous": false,
      "inputs": [
        {
          "indexed": true,
          "internalType": "address",
          "name": "sender",
          "type": "address"
        },
        {
          "indexed": true,
          "internalType": "address",
          "name": "owner",
          "type": "address"
        },
        {
          "indexed": false,
          "internalType": "uint256",
          "name": "assets",
          "type": "uint256"
        },
        {
          "indexed": false,
          "internalType": "uint256",
          "name": "shares",
          "type": "uint256"
        }
      ],
      "name": "Deposit",
      "type": "event"
    },
    {
      "anonymous": false,
      "inputs": [
        {
          "indexed": true,
          "internalType": "address",
          "name": "user",
          "type": "address"
        },
        {
          "indexed": false,
          "internalType": "uint256",
          "name": "amount",
          "type": "uint256"
        },
        {
          "indexed": false,
          "internalType": "uint256",
          "name": "shares",
          "type": "uint256"
        }
      ],
      "name": "Deposited",
      "type": "event"
    },
    {
      "anonymous": false,
      "inputs": [
        {
          "indexed": false,
          "internalType": "uint256",
          "name": "oldFee",
          "type": "uint256"
        },
        {
          "indexed": false,
          "internalType": "uint256",
          "name": "newFee",
          "type": "uint256"
        }
      ],
      "name": "FeeUpdated",
      "type": "event"
    },
    {
      "anonymous": false,
      "inputs": [
        {
          "indexed": false,
          "internalType": "address",
          "name": "newGovernment",
          "type": "address"
        }
      ],
      "name": "GovernmentChanged",
      "type": "event"
    },
    {
      "anonymous": false,
      "inputs": [
        {
          "indexed": false,
          "internalType": "uint64",
          "name": "version",
          "type": "uint64"
        }
      ],
      "name": "Initialized",
      "type": "event"
    },
    {
      "anonymous": false,
      "inputs": [
        {
          "indexed": true,
          "internalType": "address",
          "name": "feeRecipient",
          "type": "address"
        },
        {
          "indexed": false,
          "internalType": "uint256",
          "name": "amount",
          "type": "uint256"
        }
      ],
      "name": "ManagementFeeMinted",
      "type": "event"
    },
    {
      "anonymous": false,
      "inputs": [
        {
          "indexed": false,
          "internalType": "uint256",
          "name": "oldRate",
          "type": "uint256"
        },
        {
          "indexed": false,
          "internalType": "uint256",
          "name": "newRate",
          "type": "uint256"
        }
      ],
      "name": "RateUpdated",
      "type": "event"
    },
    {
      "anonymous": false,
      "inputs": [
        {
          "indexed": true,
          "internalType": "address",
          "name": "user",
          "type": "address"
        },
        {
          "indexed": false,
          "internalType": "uint256",
          "name": "shares",
          "type": "uint256"
        }
      ],
      "name": "RequestedWithdraw",
      "type": "event"
    },
    {
      "anonymous": false,
      "inputs": [
        {
          "indexed": true,
          "internalType": "bytes32",
          "name": "role",
          "type": "bytes32"
        },
        {
          "indexed": true,
          "internalType": "bytes32",
          "name": "previousAdminRole",
          "type": "bytes32"
        },
        {
          "indexed": true,
          "internalType": "bytes32",
          "name": "newAdminRole",
          "type": "bytes32"
        }
      ],
      "name": "RoleAdminChanged",
      "type": "event"
    },
    {
      "anonymous": false,
      "inputs": [
        {
          "indexed": true,
          "internalType": "bytes32",
          "name": "role",
          "type": "bytes32"
        },
        {
          "indexed": true,
          "internalType": "address",
          "name": "account",
          "type": "address"
        },
        {
          "indexed": true,
          "internalType": "address",
          "name": "sender",
          "type": "address"
        }
      ],
      "name": "RoleGranted",
      "type": "event"
    },
    {
      "anonymous": false,
      "inputs": [
        {
          "indexed": true,
          "internalType": "bytes32",
          "name": "role",
          "type": "bytes32"
        },
        {
          "indexed": true,
          "internalType": "address",
          "name": "account",
          "type": "address"
        },
        {
          "indexed": true,
          "internalType": "address",
          "name": "sender",
          "type": "address"
        }
      ],
      "name": "RoleRevoked",
      "type": "event"
    },
    {
      "anonymous": false,
      "inputs": [
        {
          "indexed": true,
          "internalType": "address",
          "name": "strategy",
          "type": "address"
        },
        {
          "indexed": false,
          "internalType": "enum IVault.StrategyChangeType",
          "name": "changeType",
          "type": "uint8"
        }
      ],
      "name": "StrategyChanged",
      "type": "event"
    },
    {
      "anonymous": false,
      "inputs": [
        {
          "indexed": true,
          "internalType": "address",
          "name": "strategy",
          "type": "address"
        },
        {
          "indexed": false,
          "internalType": "uint256",
          "name": "gain",
          "type": "uint256"
        },
        {
          "indexed": false,
          "internalType": "uint256",
          "name": "loss",
          "type": "uint256"
        },
        {
          "indexed": false,
          "internalType": "uint256",
          "name": "currentDebt",
          "type": "uint256"
        },
        {
          "indexed": false,
          "internalType": "uint256",
          "name": "performanceFee",
          "type": "uint256"
        },
        {
          "indexed": false,
          "internalType": "uint256",
          "name": "refund",
          "type": "uint256"
        }
      ],
      "name": "StrategyReported",
      "type": "event"
    },
    {
      "anonymous": false,
      "inputs": [
        {
          "indexed": true,
          "internalType": "address",
          "name": "from",
          "type": "address"
        },
        {
          "indexed": true,
          "internalType": "address",
          "name": "to",
          "type": "address"
        },
        {
          "indexed": false,
          "internalType": "uint256",
          "name": "value",
          "type": "uint256"
        }
      ],
      "name": "Transfer",
      "type": "event"
    },
    {
      "anonymous": false,
      "inputs": [],
      "name": "TreasuryTransferred",
      "type": "event"
    },
    {
      "anonymous": false,
      "inputs": [
        {
          "indexed": true,
          "internalType": "address",
          "name": "accountant",
          "type": "address"
        }
      ],
      "name": "UpdateAccountant",
      "type": "event"
    },
    {
      "anonymous": false,
      "inputs": [
        {
          "indexed": false,
          "internalType": "bool",
          "name": "autoAllocate",
          "type": "bool"
        }
      ],
      "name": "UpdateAutoAllocate",
      "type": "event"
    },
    {
      "anonymous": false,
      "inputs": [
        {
          "indexed": false,
          "internalType": "address[]",
          "name": "newDefaultQueue",
          "type": "address[]"
        }
      ],
      "name": "UpdateDefaultQueue",
      "type": "event"
    },
    {
      "anonymous": false,
      "inputs": [
        {
          "indexed": false,
          "internalType": "uint256",
          "name": "depositLimit",
          "type": "uint256"
        }
      ],
      "name": "UpdateDepositLimit",
      "type": "event"
    },
    {
      "anonymous": false,
      "inputs": [
        {
          "indexed": true,
          "internalType": "address",
          "name": "depositLimitModule",
          "type": "address"
        }
      ],
      "name": "UpdateDepositLimitModule",
      "type": "event"
    },
    {
      "anonymous": false,
      "inputs": [
        {
          "indexed": false,
          "internalType": "address",
          "name": "feeRecipient",
          "type": "address"
        }
      ],
      "name": "UpdateFeeRecipient",
      "type": "event"
    },
    {
      "anonymous": false,
      "inputs": [
        {
          "indexed": false,
          "internalType": "uint256",
          "name": "managementFee",
          "type": "uint256"
        }
      ],
      "name": "UpdateManagementFee",
      "type": "event"
    },
    {
      "anonymous": false,
      "inputs": [
        {
          "indexed": false,
          "internalType": "uint256",
          "name": "minimumTotalIdle",
          "type": "uint256"
        }
      ],
      "name": "UpdateMinimumTotalIdle",
      "type": "event"
    },
    {
      "anonymous": false,
      "inputs": [
        {
          "indexed": false,
          "internalType": "uint256",
          "name": "profitMaxUnlockTime",
          "type": "uint256"
        }
      ],
      "name": "UpdateProfitMaxUnlockTime",
      "type": "event"
    },
    {
      "anonymous": false,
      "inputs": [
        {
          "indexed": false,
          "internalType": "bool",
          "name": "useDefaultQueue",
          "type": "bool"
        }
      ],
      "name": "UpdateUseDefaultQueue",
      "type": "event"
    },
    {
      "anonymous": false,
      "inputs": [
        {
          "indexed": true,
          "internalType": "address",
          "name": "withdrawLimitModule",
          "type": "address"
        }
      ],
      "name": "UpdateWithdrawLimitModule",
      "type": "event"
    },
    {
      "anonymous": false,
      "inputs": [
        {
          "indexed": true,
          "internalType": "address",
          "name": "sender",
          "type": "address"
        },
        {
          "indexed": true,
          "internalType": "address",
          "name": "receiver",
          "type": "address"
        },
        {
          "indexed": true,
          "internalType": "address",
          "name": "owner",
          "type": "address"
        },
        {
          "indexed": false,
          "internalType": "uint256",
          "name": "assets",
          "type": "uint256"
        },
        {
          "indexed": false,
          "internalType": "uint256",
          "name": "shares",
          "type": "uint256"
        }
      ],
      "name": "Withdraw",
      "type": "event"
    },
    {
      "anonymous": false,
      "inputs": [
        {
          "indexed": true,
          "internalType": "address",
          "name": "user",
          "type": "address"
        },
        {
          "indexed": false,
          "internalType": "uint256",
          "name": "shares",
          "type": "uint256"
        },
        {
          "indexed": false,
          "internalType": "uint256",
          "name": "amount",
          "type": "uint256"
        },
        {
          "indexed": false,
          "internalType": "uint256",
          "name": "fee",
          "type": "uint256"
        }
      ],
      "name": "Withdrawn",
      "type": "event"
    },
    {
      "inputs": [],
      "name": "DEFAULT_ADMIN_ROLE",
      "outputs": [
        {
          "internalType": "bytes32",
          "name": "",
          "type": "bytes32"
        }
      ],
      "stateMutability": "view",
      "type": "function"
    },
    {
      "inputs": [
        {
          "internalType": "address",
          "name": "strategy",
          "type": "address"
        },
        {
          "internalType": "bool",
          "name": "addToQueue",
          "type": "bool"
        }
      ],
      "name": "addStrategy",
      "outputs": [],
      "stateMutability": "nonpayable",
      "type": "function"
    },
    {
      "inputs": [
        {
          "internalType": "address",
          "name": "owner",
          "type": "address"
        },
        {
          "internalType": "address",
          "name": "spender",
          "type": "address"
        }
      ],
      "name": "allowance",
      "outputs": [
        {
          "internalType": "uint256",
          "name": "",
          "type": "uint256"
        }
      ],
      "stateMutability": "view",
      "type": "function"
    },
    {
      "inputs": [
        {
          "internalType": "address",
          "name": "spender",
          "type": "address"
        },
        {
          "internalType": "uint256",
          "name": "value",
          "type": "uint256"
        }
      ],
      "name": "approve",
      "outputs": [
        {
          "internalType": "bool",
          "name": "",
          "type": "bool"
        }
      ],
      "stateMutability": "nonpayable",
      "type": "function"
    },
    {
      "inputs": [],
      "name": "asset",
      "outputs": [
        {
          "internalType": "address",
          "name": "",
          "type": "address"
        }
      ],
      "stateMutability": "view",
      "type": "function"
    },
    {
      "inputs": [
        {
          "internalType": "address",
          "name": "account",
          "type": "address"
        }
      ],
      "name": "balanceOf",
      "outputs": [
        {
          "internalType": "uint256",
          "name": "",
          "type": "uint256"
        }
      ],
      "stateMutability": "view",
      "type": "function"
    },
    {
      "inputs": [
        {
          "internalType": "address",
          "name": "owner",
          "type": "address"
        },
        {
          "internalType": "uint256",
          "name": "amount",
          "type": "uint256"
        }
      ],
      "name": "burn",
      "outputs": [],
      "stateMutability": "nonpayable",
      "type": "function"
    },
    {
      "inputs": [
        {
          "internalType": "address",
          "name": "strategy",
          "type": "address"
        },
        {
          "internalType": "uint256",
          "name": "amount",
          "type": "uint256"
        }
      ],
      "name": "buyDebt",
      "outputs": [],
      "stateMutability": "nonpayable",
      "type": "function"
    },
    {
      "inputs": [
        {
          "internalType": "uint256",
          "name": "shares",
          "type": "uint256"
        }
      ],
      "name": "convertToAssets",
      "outputs": [
        {
          "internalType": "uint256",
          "name": "",
          "type": "uint256"
        }
      ],
      "stateMutability": "view",
      "type": "function"
    },
    {
      "inputs": [
        {
          "internalType": "uint256",
          "name": "assets",
          "type": "uint256"
        }
      ],
      "name": "convertToShares",
      "outputs": [
        {
          "internalType": "uint256",
          "name": "",
          "type": "uint256"
        }
      ],
      "stateMutability": "view",
      "type": "function"
    },
    {
      "inputs": [],
      "name": "decimals",
      "outputs": [
        {
          "internalType": "uint8",
          "name": "",
          "type": "uint8"
        }
      ],
      "stateMutability": "view",
      "type": "function"
    },
    {
      "inputs": [
        {
          "internalType": "uint256",
          "name": "assets",
          "type": "uint256"
        },
        {
          "internalType": "address",
          "name": "receiver",
          "type": "address"
        }
      ],
      "name": "deposit",
      "outputs": [
        {
          "internalType": "uint256",
          "name": "",
          "type": "uint256"
        }
      ],
      "stateMutability": "nonpayable",
      "type": "function"
    },
    {
      "inputs": [
        {
          "internalType": "address",
          "name": "strategy",
          "type": "address"
        }
      ],
      "name": "forceRevokeStrategy",
      "outputs": [],
      "stateMutability": "nonpayable",
      "type": "function"
    },
    {
      "inputs": [],
      "name": "getDefaultQueue",
      "outputs": [
        {
          "internalType": "address[]",
          "name": "",
          "type": "address[]"
        }
      ],
      "stateMutability": "view",
      "type": "function"
    },
    {
      "inputs": [
        {
          "internalType": "bytes32",
          "name": "role",
          "type": "bytes32"
        }
      ],
      "name": "getRoleAdmin",
      "outputs": [
        {
          "internalType": "bytes32",
          "name": "",
          "type": "bytes32"
        }
      ],
      "stateMutability": "view",
      "type": "function"
    },
    {
      "inputs": [
        {
          "internalType": "bytes32",
          "name": "role",
          "type": "bytes32"
        },
        {
          "internalType": "address",
          "name": "account",
          "type": "address"
        }
      ],
      "name": "grantRole",
      "outputs": [],
      "stateMutability": "nonpayable",
      "type": "function"
    },
    {
      "inputs": [
        {
          "internalType": "bytes32",
          "name": "role",
          "type": "bytes32"
        },
        {
          "internalType": "address",
          "name": "account",
          "type": "address"
        }
      ],
      "name": "hasRole",
      "outputs": [
        {
          "internalType": "bool",
          "name": "",
          "type": "bool"
        }
      ],
      "stateMutability": "view",
      "type": "function"
    },
    {
      "inputs": [
        {
          "internalType": "contract IERC20",
          "name": "_asset",
          "type": "address"
        },
        {
          "internalType": "string",
          "name": "_name",
          "type": "string"
        },
        {
          "internalType": "string",
          "name": "_symbol",
          "type": "string"
        },
        {
          "internalType": "uint256",
          "name": "_profitMaxUnlockTime",
          "type": "uint256"
        },
        {
          "internalType": "address",
          "name": "governance",
          "type": "address"
        },
        {
          "internalType": "address",
          "name": "factory",
          "type": "address"
        }
      ],
      "name": "initialize",
      "outputs": [],
      "stateMutability": "nonpayable",
      "type": "function"
    },
    {
      "inputs": [
        {
          "internalType": "address",
          "name": "receiver",
          "type": "address"
        }
      ],
      "name": "maxDeposit",
      "outputs": [
        {
          "internalType": "uint256",
          "name": "",
          "type": "uint256"
        }
      ],
      "stateMutability": "view",
      "type": "function"
    },
    {
      "inputs": [
        {
          "internalType": "address",
          "name": "user",
          "type": "address"
        }
      ],
      "name": "maxMint",
      "outputs": [
        {
          "internalType": "uint256",
          "name": "",
          "type": "uint256"
        }
      ],
      "stateMutability": "view",
      "type": "function"
    },
    {
      "inputs": [
        {
          "internalType": "address",
          "name": "owner",
          "type": "address"
        }
      ],
      "name": "maxRedeem",
      "outputs": [
        {
          "internalType": "uint256",
          "name": "",
          "type": "uint256"
        }
      ],
      "stateMutability": "view",
      "type": "function"
    },
    {
      "inputs": [
        {
          "internalType": "address",
          "name": "owner",
          "type": "address"
        },
        {
          "internalType": "uint256",
          "name": "maxLoss",
          "type": "uint256"
        },
        {
          "internalType": "address[]",
          "name": "_strategies",
          "type": "address[]"
        }
      ],
      "name": "maxWithdraw",
      "outputs": [
        {
          "internalType": "uint256",
          "name": "",
          "type": "uint256"
        }
      ],
      "stateMutability": "view",
      "type": "function"
    },
    {
      "inputs": [
        {
          "internalType": "address",
          "name": "owner",
          "type": "address"
        }
      ],
      "name": "maxWithdraw",
      "outputs": [
        {
          "internalType": "uint256",
          "name": "",
          "type": "uint256"
        }
      ],
      "stateMutability": "view",
      "type": "function"
    },
    {
      "inputs": [],
      "name": "minimumTotalIdle",
      "outputs": [
        {
          "internalType": "uint256",
          "name": "",
          "type": "uint256"
        }
      ],
      "stateMutability": "view",
      "type": "function"
    },
    {
      "inputs": [
        {
          "internalType": "address",
          "name": "receiver",
          "type": "address"
        },
        {
          "internalType": "uint256",
          "name": "amount",
          "type": "uint256"
        }
      ],
      "name": "mint",
      "outputs": [],
      "stateMutability": "nonpayable",
      "type": "function"
    },
    {
      "inputs": [
        {
          "internalType": "uint256",
          "name": "shares",
          "type": "uint256"
        },
        {
          "internalType": "address",
          "name": "receiver",
          "type": "address"
        }
      ],
      "name": "mint",
      "outputs": [
        {
          "internalType": "uint256",
          "name": "",
          "type": "uint256"
        }
      ],
      "stateMutability": "nonpayable",
      "type": "function"
    },
    {
      "inputs": [],
      "name": "name",
      "outputs": [
        {
          "internalType": "string",
          "name": "",
          "type": "string"
        }
      ],
      "stateMutability": "view",
      "type": "function"
    },
    {
      "inputs": [
        {
          "internalType": "uint256",
          "name": "assets",
          "type": "uint256"
        }
      ],
      "name": "previewDeposit",
      "outputs": [
        {
          "internalType": "uint256",
          "name": "",
          "type": "uint256"
        }
      ],
      "stateMutability": "view",
      "type": "function"
    },
    {
      "inputs": [
        {
          "internalType": "uint256",
          "name": "shares",
          "type": "uint256"
        }
      ],
      "name": "previewMint",
      "outputs": [
        {
          "internalType": "uint256",
          "name": "",
          "type": "uint256"
        }
      ],
      "stateMutability": "view",
      "type": "function"
    },
    {
      "inputs": [
        {
          "internalType": "uint256",
          "name": "shares",
          "type": "uint256"
        }
      ],
      "name": "previewRedeem",
      "outputs": [
        {
          "internalType": "uint256",
          "name": "",
          "type": "uint256"
        }
      ],
      "stateMutability": "view",
      "type": "function"
    },
    {
      "inputs": [
        {
          "internalType": "uint256",
          "name": "assets",
          "type": "uint256"
        }
      ],
      "name": "previewWithdraw",
      "outputs": [
        {
          "internalType": "uint256",
          "name": "",
          "type": "uint256"
        }
      ],
      "stateMutability": "view",
      "type": "function"
    },
    {
      "inputs": [],
      "name": "pricePerShare",
      "outputs": [
        {
          "internalType": "uint256",
          "name": "",
          "type": "uint256"
        }
      ],
      "stateMutability": "view",
      "type": "function"
    },
    {
      "inputs": [],
      "name": "pricePerShareWithFee",
      "outputs": [
        {
          "internalType": "uint256",
          "name": "",
          "type": "uint256"
        }
      ],
      "stateMutability": "view",
      "type": "function"
    },
    {
      "inputs": [
        {
          "internalType": "address",
          "name": "strategy",
          "type": "address"
        }
      ],
      "name": "processReport",
      "outputs": [],
      "stateMutability": "nonpayable",
      "type": "function"
    },
    {
      "inputs": [
        {
          "internalType": "uint256",
          "name": "shares",
          "type": "uint256"
        },
        {
          "internalType": "address",
          "name": "receiver",
          "type": "address"
        },
        {
          "internalType": "address",
          "name": "owner",
          "type": "address"
        }
      ],
      "name": "redeem",
      "outputs": [
        {
          "internalType": "uint256",
          "name": "",
          "type": "uint256"
        }
      ],
      "stateMutability": "nonpayable",
      "type": "function"
    },
    {
      "inputs": [
        {
          "internalType": "bytes32",
          "name": "role",
          "type": "bytes32"
        },
        {
          "internalType": "address",
          "name": "callerConfirmation",
          "type": "address"
        }
      ],
      "name": "renounceRole",
      "outputs": [],
      "stateMutability": "nonpayable",
      "type": "function"
    },
    {
      "inputs": [
        {
          "internalType": "bytes32",
          "name": "role",
          "type": "bytes32"
        },
        {
          "internalType": "address",
          "name": "account",
          "type": "address"
        }
      ],
      "name": "revokeRole",
      "outputs": [],
      "stateMutability": "nonpayable",
      "type": "function"
    },
    {
      "inputs": [
        {
          "internalType": "address",
          "name": "strategy",
          "type": "address"
        }
      ],
      "name": "revokeStrategy",
      "outputs": [],
      "stateMutability": "nonpayable",
      "type": "function"
    },
    {
      "inputs": [
        {
          "internalType": "address",
          "name": "newAccountant",
          "type": "address"
        }
      ],
      "name": "setAccountant",
      "outputs": [],
      "stateMutability": "nonpayable",
      "type": "function"
    },
    {
      "inputs": [
        {
          "internalType": "bool",
          "name": "autoAllocate",
          "type": "bool"
        }
      ],
      "name": "setAutoAllocate",
      "outputs": [],
      "stateMutability": "nonpayable",
      "type": "function"
    },
    {
      "inputs": [
        {
          "internalType": "address[]",
          "name": "newDefaultQueue",
          "type": "address[]"
        }
      ],
      "name": "setDefaultQueue",
      "outputs": [],
      "stateMutability": "nonpayable",
      "type": "function"
    },
    {
      "inputs": [
        {
          "internalType": "uint256",
          "name": "depositLimit",
          "type": "uint256"
        }
      ],
      "name": "setDepositLimit",
      "outputs": [],
      "stateMutability": "nonpayable",
      "type": "function"
    },
    {
      "inputs": [
        {
          "internalType": "uint256",
          "name": "depositLimit",
          "type": "uint256"
        }
      ],
      "name": "setDepositLimitForce",
      "outputs": [],
      "stateMutability": "nonpayable",
      "type": "function"
    },
    {
      "inputs": [
        {
          "internalType": "address",
          "name": "newDepositLimitModule",
          "type": "address"
        }
      ],
      "name": "setDepositLimitModule",
      "outputs": [],
      "stateMutability": "nonpayable",
      "type": "function"
    },
    {
      "inputs": [
        {
          "internalType": "address",
          "name": "newDepositLimitModule",
          "type": "address"
        }
      ],
      "name": "setDepositLimitModuleForce",
      "outputs": [],
      "stateMutability": "nonpayable",
      "type": "function"
    },
    {
      "inputs": [
        {
          "internalType": "address",
          "name": "newFeeRecipient",
          "type": "address"
        }
      ],
      "name": "setFeeRecipient",
      "outputs": [],
      "stateMutability": "nonpayable",
      "type": "function"
    },
    {
      "inputs": [
        {
          "internalType": "uint256",
          "name": "newManagementFee",
          "type": "uint256"
        }
      ],
      "name": "setManagementFee",
      "outputs": [],
      "stateMutability": "nonpayable",
      "type": "function"
    },
    {
      "inputs": [
        {
          "internalType": "uint256",
          "name": "newMinimumTotalIdle",
          "type": "uint256"
        }
      ],
      "name": "setMinimumTotalIdle",
      "outputs": [],
      "stateMutability": "nonpayable",
      "type": "function"
    },
    {
      "inputs": [
        {
          "internalType": "uint256",
          "name": "newProfitMaxUnlockTime",
          "type": "uint256"
        }
      ],
      "name": "setProfitMaxUnlockTime",
      "outputs": [],
      "stateMutability": "nonpayable",
      "type": "function"
    },
    {
      "inputs": [
        {
          "internalType": "bool",
          "name": "useDefaultQueue",
          "type": "bool"
        }
      ],
      "name": "setUseDefaultQueue",
      "outputs": [],
      "stateMutability": "nonpayable",
      "type": "function"
    },
    {
      "inputs": [
        {
          "internalType": "address",
          "name": "newWithdrawLimitModule",
          "type": "address"
        }
      ],
      "name": "setWithdrawLimitModule",
      "outputs": [],
      "stateMutability": "nonpayable",
      "type": "function"
    },
    {
      "inputs": [
        {
          "internalType": "address",
          "name": "owner",
          "type": "address"
        },
        {
          "internalType": "address",
          "name": "spender",
          "type": "address"
        },
        {
          "internalType": "uint256",
          "name": "value",
          "type": "uint256"
        }
      ],
      "name": "spendAllowance",
      "outputs": [],
      "stateMutability": "nonpayable",
      "type": "function"
    },
    {
      "inputs": [
        {
          "internalType": "address",
          "name": "strategy",
          "type": "address"
        }
      ],
      "name": "strategies",
      "outputs": [
        {
          "components": [
            {
              "internalType": "uint256",
              "name": "activation",
              "type": "uint256"
            },
            {
              "internalType": "uint256",
              "name": "lastReport",
              "type": "uint256"
            },
            {
              "internalType": "uint256",
              "name": "currentDebt",
              "type": "uint256"
            },
            {
              "internalType": "uint256",
              "name": "maxDebt",
              "type": "uint256"
            }
          ],
          "internalType": "struct DataTypes.StrategyData",
          "name": "",
          "type": "tuple"
        }
      ],
      "stateMutability": "view",
      "type": "function"
    },
    {
      "inputs": [
        {
          "internalType": "bytes4",
          "name": "interfaceId",
          "type": "bytes4"
        }
      ],
      "name": "supportsInterface",
      "outputs": [
        {
          "internalType": "bool",
          "name": "",
          "type": "bool"
        }
      ],
      "stateMutability": "view",
      "type": "function"
    },
    {
      "inputs": [],
      "name": "symbol",
      "outputs": [
        {
          "internalType": "string",
          "name": "",
          "type": "string"
        }
      ],
      "stateMutability": "view",
      "type": "function"
    },
    {
      "inputs": [],
      "name": "totalAssets",
      "outputs": [
        {
          "internalType": "uint256",
          "name": "",
          "type": "uint256"
        }
      ],
      "stateMutability": "view",
      "type": "function"
    },
    {
      "inputs": [],
      "name": "totalDebt",
      "outputs": [
        {
          "internalType": "uint256",
          "name": "",
          "type": "uint256"
        }
      ],
      "stateMutability": "view",
      "type": "function"
    },
    {
      "inputs": [],
      "name": "totalIdle",
      "outputs": [
        {
          "internalType": "uint256",
          "name": "",
          "type": "uint256"
        }
      ],
      "stateMutability": "view",
      "type": "function"
    },
    {
      "inputs": [],
      "name": "totalSupply",
      "outputs": [
        {
          "internalType": "uint256",
          "name": "",
          "type": "uint256"
        }
      ],
      "stateMutability": "view",
      "type": "function"
    },
    {
      "inputs": [],
      "name": "totalSupplyWithFee",
      "outputs": [
        {
          "internalType": "uint256",
          "name": "",
          "type": "uint256"
        }
      ],
      "stateMutability": "view",
      "type": "function"
    },
    {
      "inputs": [
        {
          "internalType": "address",
          "name": "to",
          "type": "address"
        },
        {
          "internalType": "uint256",
          "name": "value",
          "type": "uint256"
        }
      ],
      "name": "transfer",
      "outputs": [
        {
          "internalType": "bool",
          "name": "",
          "type": "bool"
        }
      ],
      "stateMutability": "nonpayable",
      "type": "function"
    },
    {
      "inputs": [
        {
          "internalType": "address",
          "name": "from",
          "type": "address"
        },
        {
          "internalType": "address",
          "name": "to",
          "type": "address"
        },
        {
          "internalType": "uint256",
          "name": "value",
          "type": "uint256"
        }
      ],
      "name": "transferFrom",
      "outputs": [
        {
          "internalType": "bool",
          "name": "",
          "type": "bool"
        }
      ],
      "stateMutability": "nonpayable",
      "type": "function"
    },
    {
      "inputs": [
        {
          "internalType": "address",
          "name": "strategy",
          "type": "address"
        },
        {
          "internalType": "uint256",
          "name": "targetDebt",
          "type": "uint256"
        },
        {
          "internalType": "uint256",
          "name": "maxLoss",
          "type": "uint256"
        }
      ],
      "name": "updateDebt",
      "outputs": [],
      "stateMutability": "nonpayable",
      "type": "function"
    },
    {
      "inputs": [
        {
          "internalType": "address",
          "name": "strategy",
          "type": "address"
        },
        {
          "internalType": "uint256",
          "name": "newMaxDebt",
          "type": "uint256"
        }
      ],
      "name": "updateMaxDebtForStrategy",
      "outputs": [],
      "stateMutability": "nonpayable",
      "type": "function"
    },
    {
      "inputs": [],
      "name": "vaultData",
      "outputs": [
        {
          "internalType": "address",
          "name": "addressVault",
          "type": "address"
        },
        {
          "internalType": "uint256",
          "name": "totalDebt",
          "type": "uint256"
        },
        {
          "internalType": "uint256",
          "name": "totalIdle",
          "type": "uint256"
        },
        {
          "internalType": "bool",
          "name": "useDefaultQueue",
          "type": "bool"
        },
        {
          "internalType": "bool",
          "name": "autoAllocate",
          "type": "bool"
        },
        {
          "internalType": "uint256",
          "name": "minimumTotalIdle",
          "type": "uint256"
        },
        {
          "internalType": "uint256",
          "name": "depositLimit",
          "type": "uint256"
        },
        {
          "internalType": "uint256",
          "name": "profitMaxUnlockTime",
          "type": "uint256"
        },
        {
          "internalType": "uint256",
          "name": "fullProfitUnlockDate",
          "type": "uint256"
        },
        {
          "internalType": "uint256",
          "name": "profitUnlockingRate",
          "type": "uint256"
        },
        {
          "internalType": "uint256",
          "name": "lastProfitUpdate",
          "type": "uint256"
        },
        {
          "internalType": "address",
          "name": "accountant",
          "type": "address"
        },
        {
          "internalType": "address",
          "name": "depositLimitModule",
          "type": "address"
        },
        {
          "internalType": "address",
          "name": "withdrawLimitModule",
          "type": "address"
        },
        {
          "internalType": "address",
          "name": "feeRecipient",
          "type": "address"
        },
        {
          "internalType": "uint256",
          "name": "managementFee",
          "type": "uint256"
        },
        {
          "internalType": "uint256",
          "name": "lastTimeTakeManagementFee",
          "type": "uint256"
        }
      ],
      "stateMutability": "view",
      "type": "function"
    },
    {
      "inputs": [
        {
          "internalType": "uint256",
          "name": "assets",
          "type": "uint256"
        },
        {
          "internalType": "address",
          "name": "receiver",
          "type": "address"
        },
        {
          "internalType": "address",
          "name": "owner",
          "type": "address"
        }
      ],
      "name": "withdraw",
      "outputs": [
        {
          "internalType": "uint256",
          "name": "",
          "type": "uint256"
        }
      ],
      "stateMutability": "nonpayable",
      "type": "function"
    }
  ],
  "transactionHash": "0x04db340499aea477c620d4ff9f60128eb459f54f7bbb2185fadda9e55d433eb7",
  "args": [],
  "numDeployments": 1,
  "solcInputHash": "cd8e5dfee593133b7042ffb67781501c",
  "bytecode": "0x6080806040523461001657613fce908161001c8239f35b600080fdfe60a0604052600436101561001257600080fd5b6000803560e01c806301e1d11414612d8757806301ffc9a714612d3057806306fdde0314612c8f57806307a2d13a14612c2d5780630835a3fc14612c0f578063095ea7b314612b5e5780630a28a47714612acc5780630e26f3ec14612a3b57806316b87ac0146129af57806318160ddd1461299457806323b872dd14612971578063248a9ca31461293757806329f3cef5146128715780632d772168146127f45780632f2ff15d146127a9578063313ce5671461274857806336568abe1461270057806338d52e0f146126b857806339ebf8231461261b578063402d267d146125f7578063405977e71461250957806340c10f191461243b5780634492e2001461237857806347b70db0146119fe57806348ea71271461192d5780634bbd71e91461185c5780634cdad506146117fc578063633f228c146116ef57806363d56c9a1461167e57806365cb6765146115545780636e547742146114985780636e553f651461140e57806370a08231146113c85780638212fd431461130d5780638aedaa6d146112e157806391d148541461128857806394bf804d146111e557806395d89b411461110457806399530b06146110765780639aa7df94146110585780639bbca88414610fe75780639dc29fac14610ed7578063a217fddf14610ebb578063a9059cbb14610e89578063b3d7f6b914610e6a578063b460af9414610d34578063b6cc2d1f14610c0f578063ba08765214610b03578063bb994d4814610a86578063bdc8144b14610a17578063c63d75b6146109f3578063c6e6f59214610993578063ce96cb7714610922578063cf206a7914610830578063d547741f146107e1578063d905777e14610731578063dd62ed3e146106e7578063dd8aaa4f146106c1578063df69b22a14610658578063e74b981b146105db578063edb45ffd1461056b578063ef8b30f714610544578063f6d7bfa014610422578063f7e47f781461039a578063fc7b9c181461037c5763fe56e232146102f357600080fd5b3461036b57602036600319011261036b5761030c61341e565b80738C94E2732b8E31276bf6C3Cd30644C8Ef28E47c4803b1561037957816044916040519283809263d0293cdf60e01b825284600483015260043560248301525af4801561036e5761035b5750f35b61036490612e67565b61036b5780f35b80fd5b6040513d84823e3d90fd5b50fd5b503461036b578060031936011261036b576020600154604051908152f35b503461036b57602036600319011261036b57806103b5612df2565b6103bd61330a565b738C94E2732b8E31276bf6C3Cd30644C8Ef28E47c490813b1561041e57604051635a5994d360e11b8152600481018490526001600160a01b03909116602482015260016044820152908290829060649082905af4801561036e5761035b5750f35b5050fd5b503461036b57604036600319011261036b5761043c612df2565b90610445613b05565b3360009081527fba497e86a689750256daf086e2b8feba953def9b723a3f9e563274cc492e774960205260409020547fb5635f8fcf25e4801550a062d4397a74f631be84ea8b1cff4a86e831f5c203dc929060ff1615610525578190730B035d034EDFd65225BdA2a7C8D45a5a739a146990813b1561041e578290606460405180948193633c4c444160e01b835285600484015260018060a01b0316602483015260243560448301525af4801561036e57610511575b506001600080516020613f598339815191525580f35b61051a90612e67565b61036b5780826104fb565b60405163e2517d3f60e01b815233600482015260248101849052604490fd5b503461036b57602036600319011261036b576020610563600435613265565b604051908152f35b503461036b57602036600319011261036b5761058561330a565b80738C94E2732b8E31276bf6C3Cd30644C8Ef28E47c4803b156103795781606491604051928380926306e5b7e760e21b82528460048301526004356024830152600160448301525af4801561036e5761035b5750f35b503461036b57602036600319011261036b57806105f6612df2565b6105fe61341e565b738C94E2732b8E31276bf6C3Cd30644C8Ef28E47c490813b1561041e576040516342320d6160e11b8152600481018490526001600160a01b039091166024820152908290829060449082905af4801561036e5761035b5750f35b503461036b57602036600319011261036b5761067261341e565b80738C94E2732b8E31276bf6C3Cd30644C8Ef28E47c4803b15610379578160449160405192838092631a5db58960e21b825284600483015260043560248301525af4801561036e5761035b5750f35b503461036b576106e46106d336612e32565b916106df3033146130cc565b6134ad565b80f35b503461036b57604036600319011261036b57610701612df2565b61071261070c612e08565b91613093565b9060018060a01b03166000526020526020604060002054604051908152f35b503461036b576020908160031936011261036b5761074d612df2565b604051634b2ec7c960e01b8152600481018390526001600160a01b0390911660248201528281604481736263D4Ec54A3905CDe982f21E76Ae3C3EC9227895af49182156107d557916107a3575b50604051908152f35b90508181813d83116107ce575b6107ba8183612eb0565b810103126107c957513861079a565b600080fd5b503d6107b0565b604051903d90823e3d90fd5b503461036b57604036600319011261036b5761082c600435610801612e08565b90808452600080516020613f19833981519152602052610827600160408620015461347a565b613994565b5080f35b503461036b578060031936011261036b5760018060a01b0380915416906001549060025490600554600654600754600854600954600a5491600b549387600c54169560ff89600d5416988a600e54169a600f54169b6010549d6011549f60405160805260805152602060805101526040608051015281811615156060608051015260081c16151560808051015260a0608051015260c0608051015260e06080510152610100608051015261012060805101526101406080510152610160608051015261018060805101526101a060805101526101c060805101526101e060805101526102006080510152610220608051f35b503461036b576020908160031936011261036b5761093e612df2565b6040516333fefd2b60e21b8152600481018390526001600160a01b0390911660248201528281604481736263D4Ec54A3905CDe982f21E76Ae3C3EC9227895af49182156107d557916107a35750604051908152f35b503461036b576020908160031936011261036b576040516313567f2960e01b815260048082018390523560248201528281604481736263D4Ec54A3905CDe982f21E76Ae3C3EC9227895af49182156107d557916107a35750604051908152f35b503461036b57602036600319011261036b576020610563610a12612df2565b613212565b503461036b57602036600319011261036b57610a3161330a565b80738C94E2732b8E31276bf6C3Cd30644C8Ef28E47c4803b156103795781606491604051928380926306e5b7e760e21b825284600483015260043560248301528460448301525af4801561036e5761035b5750f35b503461036b57602036600319011261036b5780610aa1612df2565b610aa96132ae565b738C94E2732b8E31276bf6C3Cd30644C8Ef28E47c490813b1561041e578290606460405180948193634dcf1cf760e11b835285600484015260018060a01b031660248301528460448301525af4801561036e5761035b5750f35b503461036b57610b1236612f42565b610b1d939293613b35565b506040519163b3fc5db960e01b835260006004840152846024840152600060448401526020948584606481736263D4Ec54A3905CDe982f21E76Ae3C3EC9227895af4938415610c045790869392918695610bd0575b50604051610ba291610b8382612e95565b87825260405163ed607eef60e01b8152968795869533600488016131c3565b038173b355b3a17864Ab4261E8C2e79F071397Fa4a2c285af49182156107d557916107a35750604051908152f35b8481959296503d8311610bfd575b610be88183612eb0565b810103126107c957610ba28693519490610b72565b503d610bde565b6040513d87823e3d90fd5b503461036b57602036600319011261036b57610c29612df2565b610c31613b05565b3360009081527fa3f49cd9abc069fadad1b5960d4e73636b82c5d06bb74023c9881d605e88b70260205260409020547fb88f06de7a467621d4739d66b596fe556082f25ab13291a5e3412ebfe6a282c79060ff1615610d16575060408051630ab19c7560e01b8152600481018490526001600160a01b03909216602483015281604481730B035d034EDFd65225BdA2a7C8D45a5a739a14695af4801561036e57610ceb57506001600080516020613f598339815191525580f35b604090813d8311610d0f575b610d018183612eb0565b8101031261036b57386104fb565b503d610cf7565b6044906040519063e2517d3f60e01b82523360048301526024820152fd5b503461036b57610d4336612f42565b919092610d4e613b35565b5060405192633413a49160e11b845260006004850152826024850152600160448501526020948585606481736263D4Ec54A3905CDe982f21E76Ae3C3EC9227895af4948515610e5f57908692918496610e2e575b50610dd2604051610db281612e95565b85815287604051978895869563ed607eef60e01b875233600488016131c3565b038173b355b3a17864Ab4261E8C2e79F071397Fa4a2c285af49081156107d55750908391610e05575b5050604051908152f35b813d8311610e27575b610e188183612eb0565b810103126107c9578138610dfb565b503d610e0e565b8381949297503d8311610e58575b610e468183612eb0565b810103126107c9578591519438610da2565b503d610e3c565b6040513d85823e3d90fd5b503461036b57602036600319011261036b57602061056360043561314b565b503461036b57604036600319011261036b57610eb0610ea6612df2565b6024359033613583565b602060405160018152f35b503461036b578060031936011261036b57602090604051908152f35b503461036b57604036600319011261036b57610ef1612df2565b90602435610f003033146130cc565b6001600160a01b038316908115610fce5781600052600080516020613ed98339815191528060205260406000205494828610610f9d5750817fddf252ad1be2c89b69c2b068fc378daa952ba7f163c4a11628f55a4df523b3ef926000959660209386885284520360408620557f52c63247e1f47db19d5ce0460030c497f067ca4cebf71ba98eeadabe20bace02818154039055604051908152a380f35b60405163391434e360e21b81526001600160a01b039190911660048201526024810186905260448101839052606490fd5b604051634b637e8f60e11b815260048101849052602490fd5b503461036b57602036600319011261036b5780611002612f33565b61100a6133c2565b738C94E2732b8E31276bf6C3Cd30644C8Ef28E47c490813b1561041e578290604460405180948193639425dfc760e01b8352856004840152151560248301525af4801561036e5761035b5750f35b503461036b578060031936011261036b576020600254604051908152f35b503461036b578060031936011261036b57604051631f387e1d60e21b81526004810182905290602082602481736263D4Ec54A3905CDe982f21E76Ae3C3EC9227895af49081156107d557906110d1575b602090604051908152f35b506020813d6020116110fc575b816110eb60209383612eb0565b810103126107c957602090516110c6565b3d91506110de565b503461036b578060031936011261036b576040519080600080516020613ef9833981519152805461113481612f9a565b808652926020926001928084169081156111b65750600114611171575b61116d8761116181890382612eb0565b60405191829182612da9565b0390f35b81529350600080516020613f398339815191525b8385106111a3575050505081016020016111618261116d3880611151565b8054868601840152938201938101611185565b91505086955061116d9693506020925061116194915060ff191682840152151560051b82010192933880611151565b503461036b57604036600319011261036b57600435611202612e08565b61120a613b05565b611212613b35565b5061121c81613212565b808311611255575061123b8261123360209461314b565b809333613d4d565b6001600080516020613f5983398151915255604051908152f35b60405163284ff66760e01b81526001600160a01b0392909216600483015260248201929092526044810191909152606490fd5b503461036b57604036600319011261036b5760406112a4612e08565b916004358152600080516020613f19833981519152602052209060018060a01b0316600052602052602060ff604060002054166040519015158152f35b503461036b578060031936011261036b5760206105636112ff612fe1565b611307613c2c565b90612f77565b503461036b57602036600319011261036b573360009081527ffaadd6a40a37543b0ddfe1e3f3f266e11072592917e21d6a890803d0d7d6f75b60205260409020547f56df694eb35c748e42e9628d52ed28575d4046c5cb4ba53578a35cacecaaf9f99060ff1615610d16575080738C94E2732b8E31276bf6C3Cd30644C8Ef28E47c4803b156103795781604491604051928380926307d4432d60e51b825284600483015260043560248301525af4801561036e5761035b5750f35b503461036b57602036600319011261036b576020906040906001600160a01b036113f0612df2565b168152600080516020613ed983398151915283522054604051908152f35b503461036b57604036600319011261036b5760043561142b612e08565b611433613b05565b61143b613b35565b5061144581613a17565b8083116114655760208361123b8461145c83613265565b92839133613d4d565b604051633c8097d960e11b81526001600160a01b0392909216600483015260248201929092526044810191909152606490fd5b503461036b57604036600319011261036b576114b2612df2565b6024358015158091036107c95782916114c9613b05565b738C94E2732b8E31276bf6C3Cd30644C8Ef28E47c491823b1561154f5760405163ce4c748160e01b8152600481018590526001600160a01b0390921660248301526044820152908290829060649082905af4801561036e5761153b57506001600080516020613f598339815191525580f35b61154490612e67565b61036b5780386104fb565b505050fd5b503461036b57606036600319011261036b5761156e612df2565b90604435906001600160401b0380831161167a573660238401121561167a578260040135908111611664578060051b93602094604051926115b187830185612eb0565b835260248684019186010194368611611660579060248794939201905b86821061164957505061161b939450604051938492839263233d87e760e01b845287600485015260018060a01b03166024840152602435604484015260806064840152608483019061310e565b0381736263D4Ec54A3905CDe982f21E76Ae3C3EC9227895af49182156107d557916107a35750604051908152f35b84809161165584612e1e565b8152019101906115ce565b8480fd5b634e487b7160e01b600052604160045260246000fd5b5080fd5b503461036b57602036600319011261036b5780611699612f33565b6116a1613366565b738C94E2732b8E31276bf6C3Cd30644C8Ef28E47c490813b1561041e57829060446040518094819363de9f508b60e01b8352856004840152151560248301525af4801561036e5761035b5750f35b503461036b57602090602060031936011261036b57600435916001600160401b038084116117f857366023850112156117f85783600401359081116117f8573660248260051b860101116117f857611745613b05565b61174d6133c2565b738C94E2732b8E31276bf6C3Cd30644C8Ef28E47c490813b156117f457919360405192637d35a6e560e11b845280604485018660048701526040602487015252602460648501920195855b8281106117cb578680878181808903818b5af4801561036e5761051157506001600080516020613f598339815191525580f35b9091928280600192838060a01b036117e28c612e1e565b16815201980191019692919096611798565b8380fd5b8280fd5b503461036b576020908160031936011261036b57604051630c2424d960e31b815260048082018390523560248201528281604481736263D4Ec54A3905CDe982f21E76Ae3C3EC9227895af49182156107d557916107a35750604051908152f35b503461036b57602036600319011261036b57611876612df2565b3360009081527f4166860bad6fb293cdffa9a9ce4c05d6e5359c7e9205745eae341f3036af237a60205260409020547f0e5c3557c557b929246c71f8bdd2b8d41adac718fe1473b2c5260a78b189cd5192919060ff1615610525578190738C94E2732b8E31276bf6C3Cd30644C8Ef28E47c490813b1561041e57604051632248a0d360e21b8152600481018490526001600160a01b039091166024820152908290829060449082905af4801561036e5761035b5750f35b503461036b57602036600319011261036b57611947612df2565b3360009081527f9a4cd071f2ff548e185a4af9a22df0932b4f41be60048045cf84c207ed3d583860205260409020547f6ba016d3b65b86283908b0fb3b490838033bbcf01b3aebc405616e0c981d007392919060ff1615610525578190738C94E2732b8E31276bf6C3Cd30644C8Ef28E47c490813b1561041e5760405163d55d582b60e01b8152600481018490526001600160a01b039091166024820152908290829060449082905af4801561036e5761035b5750f35b503461036b5760c036600319011261036b576001600160a01b0390600435808316900361036b576024356001600160401b03811161167a57611a44903690600401612eec565b6044356001600160401b0381116117f857611a63903690600401612eec565b928060843516608435036107c9578060a4351660a435036107c957600080516020613f7983398151915254916001600160401b03831680159081612368575b600114908161235e575b159081612355575b506123435760016001600160401b0319841617600080516020613f798339815191525560ff8360401c1615612316575b611aec613bea565b611af4613bea565b8051906001600160401b038211612302578190611b1f600080516020613eb983398151915254612f9a565b601f8111612283575b50602090601f83116001146121f35786926121e8575b50508160011b916000199060031b1c191617600080516020613eb9833981519152555b83516001600160401b0381116121d457611b89600080516020613ef983398151915254612f9a565b601f811161215c575b506020601f82116001146120cf57849582939495926120c4575b50508160011b916000199060031b1c191617600080516020613ef9833981519152555b611bd7613bea565b611bdf613bea565b611bea600435613dc4565b90156120bc575b7f0773e532dfede91f04b12a73d3d2acd361424f41f76b4fb79f090161e36b4e0091825490600435169160ff60a01b9060a01b16906affffffffffffffffffffff60a81b1617179055611c42613bea565b611c4a613bea565b6001600080516020613f5983398151915255611c64613bea565b8173A4AC0B2b73d56E1698e25e604E53Fa8cC169523C803b1561167a578160449160405192838092632397c4e160e21b825284600483015260643560248301525af4801561036e576120a8575b505060ff90611cc1608435613671565b50611ccd608435613721565b50611cd960a435613721565b50611ce560a4356137cb565b50611cf160a435613875565b507f9bd4dbbde3e8c2a4c422fc593b5df31e3960da9ec402b66c87a010d0623ab46c80600052600080516020613f1983398151915260205260016040600020018181549155817fbd79b86ffe0ab8e8776151514217cd7cacd52c909f66475c3af44e129f0b00ff918183600080a4817faa5d998d0c4b42510868f0d0e7c0a96373abb1abcf4dacce3cd68c32dfecf1e580600052600160406000200190828254925583600080a4817fbc6b16c313697c03242487da72beb3e512a6f0f23d77bbc347355f0e763f334d80600052600160406000200190828254925583600080a4817f6ba016d3b65b86283908b0fb3b490838033bbcf01b3aebc405616e0c981d007380600052600160406000200190828254925583600080a4817fbee4eff7f43f50370c5c13e95885f9da68bec8d32cae11dd550acc392d51c0ec80600052600160406000200190828254925583600080a4817fb88f06de7a467621d4739d66b596fe556082f25ab13291a5e3412ebfe6a282c780600052600160406000200190828254925583600080a4817f4087820ac4f3f365dd6666f75a18a95ae63ded871b765505dc50ff63b8b8ad7a80600052600160406000200190828254925583600080a4817fb5635f8fcf25e4801550a062d4397a74f631be84ea8b1cff4a86e831f5c203dc80600052600160406000200190828254925583600080a4817f887f610dcfd5fcb5c1f7698dc3962d3f7c9e3ac366693c640c2cb4541798cce580600052600160406000200190828254925583600080a4817f0e5c3557c557b929246c71f8bdd2b8d41adac718fe1473b2c5260a78b189cd5180600052600160406000200190828254925583600080a4817f56df694eb35c748e42e9628d52ed28575d4046c5cb4ba53578a35cacecaaf9f980600052600160406000200190828254925583600080a4817f8ec1c37cf64b8ee6251b9f56a2381f08fce59092560623126b6f8aa4843227fb80600052600160406000200190828254925583600080a4817fd8ff363222baefa421b7eedd5f7f531b7be1f7001edc7ee4ad694cde369f31ee80600052600160406000200190828254925583600080a47fd40d5b35459acbc45a4f502ed75abb26933ccc9216a51d40c846481a5274c68a806000526001604060002001918383549355600080a460401c161561204e5780f35b68ff000000000000000019600080516020613f798339815191525416600080516020613f79833981519152557fc7f505b2f371ae2175ee4913f4499e1f2633a7b5936321eed1cdaeb6115181d2602060405160018152a180f35b6120b190612e67565b61167a578138611cb1565b506012611bf1565b015190503880611bac565b600080516020613ef98339815191528552600080516020613f3983398151915290855b601f1984168110612144575060019394959683601f1981161061212b575b505050811b01600080516020613ef983398151915255611bcf565b015160001960f88460031b161c19169055388080612110565b9091602060018192858b0151815501930191016120f2565b600080516020613ef98339815191528552601f820160051c600080516020613f398339815191520190602083106121be575b601f0160051c600080516020613f3983398151915201905b8181106121b35750611b92565b8581556001016121a6565b600080516020613f39833981519152915061218e565b634e487b7160e01b84526041600452602484fd5b015190503880611b3e565b9250600080516020613eb98339815191528652600080516020613e998339815191529086935b601f1984168510612268576001945083601f1981161061224f575b505050811b01600080516020613eb983398151915255611b61565b015160001960f88460031b161c19169055388080612234565b81810151835560209485019460019093019290910190612219565b909150600080516020613eb98339815191528652601f830160051c600080516020613e9983398151915201602084106122ed575b908392915b601f820160051c600080516020613e998339815191520181106122df5750611b28565b8781558493506001016122bc565b50600080516020613e998339815191526122b7565b634e487b7160e01b85526041600452602485fd5b68ffffffffffffffffff1983166801000000000000000117600080516020613f7983398151915255611ae4565b60405163f92ee8a960e01b8152600490fd5b90501538611ab4565b303b159150611aac565b604085901c60ff16159150611aa2565b503461036b57606036600319011261036b57612392612df2565b61239a613b05565b6123a2613366565b60405190638dd618f560e01b825282600483015260018060a01b0316602482015260243560448201526044356064820152602081608481730B035d034EDFd65225BdA2a7C8D45a5a739a14695af4801561036e5761241057506001600080516020613f598339815191525580f35b602090813d8311612434575b6124268183612eb0565b810103126107c957386104fb565b503d61241c565b503461036b57604036600319011261036b57612455612df2565b602435906124643033146130cc565b6001600160a01b03169081156124f0577fddf252ad1be2c89b69c2b068fc378daa952ba7f163c4a11628f55a4df523b3ef60206000927f52c63247e1f47db19d5ce0460030c497f067ca4cebf71ba98eeadabe20bace026124c6828254612f77565b9055848452600080516020613ed9833981519152825260408420818154019055604051908152a380f35b60405163ec442f0560e01b815260048101849052602490fd5b503461036b57604036600319011261036b57612523612df2565b9061252c613b05565b3360009081527ff495fdbfca8d2976096e9633d5792e8da7dcb1810952a4535dbeac0d0254195860205260409020547fd8ff363222baefa421b7eedd5f7f531b7be1f7001edc7ee4ad694cde369f31ee929060ff1615610525578190730B035d034EDFd65225BdA2a7C8D45a5a739a146990813b1561041e578290606460405180948193632dd9caaf60e11b835285600484015260018060a01b0316602483015260243560448301525af4801561036e5761051157506001600080516020613f598339815191525580f35b503461036b57602036600319011261036b576020610563612616612df2565b613a17565b503461036b57602036600319011261036b57604060809161263a612df2565b816060845161264881612e7a565b8281528260208201528286820152015260018060a01b0316815260036020522060405161267481612e7a565b815491828252600181015460208301908152606060036002840154936040860194855201549301928352604051938452516020840152516040830152516060820152f35b503461036b578060031936011261036b577f0773e532dfede91f04b12a73d3d2acd361424f41f76b4fb79f090161e36b4e00546040516001600160a01b039091168152602090f35b503461036b57604036600319011261036b5761271a612e08565b336001600160a01b038216036127365761082c90600435613994565b60405163334bd91960e11b8152600490fd5b503461036b578060031936011261036b5760ff7f0773e532dfede91f04b12a73d3d2acd361424f41f76b4fb79f090161e36b4e005460a01c169060ff821161279557602082604051908152f35b634e487b7160e01b81526011600452602490fd5b503461036b57604036600319011261036b5761082c6004356127c9612e08565b90808452600080516020613f198339815191526020526127ef600160408620015461347a565b61391f565b503461036b57602036600319011261036b578061280f612df2565b61281761330a565b738C94E2732b8E31276bf6C3Cd30644C8Ef28E47c490813b1561041e578290606460405180948193635a5994d360e11b835285600484015260018060a01b031660248301528460448301525af4801561036e5761035b5750f35b503461036b578060031936011261036b5760405180916004549081835260208093018092600483527f8a35acfbc15ff81a39ae7d344fd709f28e8600b4aa8c65c6b64bfe7fe36bd19b90835b81811061291a57505050846128d3910385612eb0565b60405193838594850191818652518092526040850193925b8281106128fa57505050500390f35b83516001600160a01b0316855286955093810193928101926001016128eb565b82546001600160a01b0316845292860192600192830192016128bd565b503461036b57602036600319011261036b57600160406020926004358152600080516020613f198339815191528452200154604051908152f35b503461036b57610eb061298336612e32565b9161298f8333836134ad565b613583565b503461036b578060031936011261036b576020610563612fe1565b503461036b57602036600319011261036b576129c9612df2565b6129d16132ae565b81738C94E2732b8E31276bf6C3Cd30644C8Ef28E47c491823b1561167a57604051634dcf1cf760e11b8152600481018390526001600160a01b0390911660248201526001604482015291829060649082905af4801561036e57612a32575080f35b6106e490612e67565b503461036b578060031936011261036b576040516310e005b160e01b815260048101829052602081602481736263D4Ec54A3905CDe982f21E76Ae3C3EC9227895af490811561036e578291612a96575b602082604051908152f35b90506020813d602011612ac4575b81612ab160209383612eb0565b8101031261167a57602091505138612a8b565b3d9150612aa4565b503461036b576020908160031936011261036b576040516361af063360e11b815260048082018390523560248201528281604481736263D4Ec54A3905CDe982f21E76Ae3C3EC9227895af49182156107d5578092612b2e575050604051908152f35b9091508282813d8311612b57575b612b468183612eb0565b8101031261036b5750513880610dfb565b503d612b3c565b503461036b57604036600319011261036b57612b78612df2565b602435903315612bf6576001600160a01b0316918215612bde5760408291612b9f33613093565b85825260205220556040519081527f8c5be1e5ebec7d5bd14f71427d1e84f3dd0314c0f7b2291e5b200ac8c7c3b92560203392a3602060405160018152f35b60249060405190634a1406b160e11b82526004820152fd5b60405163e602df0560e01b815260048101849052602490fd5b503461036b578060031936011261036b576020600654604051908152f35b503461036b576020908160031936011261036b576040516310968a0560e01b815260048082018390523560248201528281604481736263D4Ec54A3905CDe982f21E76Ae3C3EC9227895af49182156107d5578092612b2e575050604051908152f35b503461036b578060031936011261036b576040519080600080516020613eb98339815191528054612cbf81612f9a565b808652926020926001928084169081156111b65750600114612ceb5761116d8761116181890382612eb0565b81529350600080516020613e998339815191525b838510612d1d575050505081016020016111618261116d3880611151565b8054868601840152938201938101612cff565b503461036b57602036600319011261036b5760043563ffffffff60e01b811680910361167a57602090637965db0b60e01b8114908115612d76575b506040519015158152f35b6301ffc9a760e01b14905082612d6b565b503461036b578060031936011261036b57602061056360025460015490612f77565b6020808252825181830181905290939260005b828110612dde57505060409293506000838284010152601f8019910116010190565b818101860151848201604001528501612dbc565b600435906001600160a01b03821682036107c957565b602435906001600160a01b03821682036107c957565b35906001600160a01b03821682036107c957565b60609060031901126107c9576001600160a01b039060043582811681036107c9579160243590811681036107c9579060443590565b6001600160401b03811161166457604052565b608081019081106001600160401b0382111761166457604052565b602081019081106001600160401b0382111761166457604052565b90601f801991011681019081106001600160401b0382111761166457604052565b6001600160401b03811161166457601f01601f191660200190565b81601f820112156107c957803590612f0382612ed1565b92612f116040519485612eb0565b828452602083830101116107c957816000926020809301838601378301015290565b6004359081151582036107c957565b60609060031901126107c957600435906001600160a01b039060243582811681036107c9579160443590811681036107c95790565b91908201809211612f8457565b634e487b7160e01b600052601160045260246000fd5b90600182811c92168015612fca575b6020831014612fb457565b634e487b7160e01b600052602260045260246000fd5b91607f1691612fa9565b91908203918211612f8457565b7f52c63247e1f47db19d5ce0460030c497f067ca4cebf71ba98eeadabe20bace0254604051639a17075960e01b8152600060048201529060208260248173FAE954E4F223ac1E2cC7437563dBB5B2E2a3fB9E5af490811561308757600091613051575b61304e9250612fd4565b90565b90506020823d60201161307f575b8161306c60209383612eb0565b810103126107c95761304e915190613044565b3d915061305f565b6040513d6000823e3d90fd5b6001600160a01b031660009081527f52c63247e1f47db19d5ce0460030c497f067ca4cebf71ba98eeadabe20bace016020526040902090565b156130d357565b60405162461bcd60e51b815260206004820152601360248201527213db9b1e481d985d5b1d0818d85b881b5a5b9d606a1b6044820152606490fd5b90815180825260208080930193019160005b82811061312e575050505090565b83516001600160a01b031685529381019392810192600101613120565b60405190630d25bbb560e01b8252600060048301526024820152602081604481736263D4Ec54A3905CDe982f21E76Ae3C3EC9227895af490811561308757600091613194575090565b90506020813d6020116131bb575b816131af60209383612eb0565b810103126107c9575190565b3d91506131a2565b60008082526001600160a01b039283166020830152928216604082015292166060830152608082019290925260a081019290925260c082015261010060e0820181905261304e9291019061310e565b60405163a72a276960e01b8152600060048201526001600160a01b039091166024820152602081604481736263D4Ec54A3905CDe982f21E76Ae3C3EC9227895af490811561308757600091613194575090565b6040519063665c96db60e11b8252600060048301526024820152602081604481736263D4Ec54A3905CDe982f21E76Ae3C3EC9227895af490811561308757600091613194575090565b3360009081527f10d70e3a3777c025b5e9ce76933ad9e855317d269f27e1a4bc94e9698e3f665860205260409020547fbc6b16c313697c03242487da72beb3e512a6f0f23d77bbc347355f0e763f334d9060ff1615610d165750565b3360009081527f6c0c2d1d14bc83a2216e58daf9a0cd7e298111de4a5b7b16aa980076b0f85ff960205260409020547f887f610dcfd5fcb5c1f7698dc3962d3f7c9e3ac366693c640c2cb4541798cce59060ff1615610d165750565b3360009081527fadcc9e5138e1babd8d9829f890e27ec44d4e252c58e34ce3fa129c741d13373460205260409020547f4087820ac4f3f365dd6666f75a18a95ae63ded871b765505dc50ff63b8b8ad7a9060ff1615610d165750565b3360009081527fcb9217e6f561c641ce68559bb80a1db31d7146ae067b9bbb49f5d5b07066d7b860205260409020547fbee4eff7f43f50370c5c13e95885f9da68bec8d32cae11dd550acc392d51c0ec9060ff1615610d165750565b3360009081527f4a9c097c866513af3cc7dc827c0f6d0047b0afe5503d41e27ed9ad22b37874cd60205260409020547f9bd4dbbde3e8c2a4c422fc593b5df31e3960da9ec402b66c87a010d0623ab46c9060ff1615610d165750565b80600052600080516020613f1983398151915260205260406000203360005260205260ff6040600020541615610d165750565b91906134b883613093565b9260018060a01b03908183169160009583875260205260408620549360001985106134e7575b50505050505050565b8585106135525750811615613539578115613520579061350a6040949392613093565b90855260205203912055388080808080806134de565b604051634a1406b160e11b815260048101869052602490fd5b60405163e602df0560e01b815260048101869052602490fd5b604051637dc7a0d960e11b81526001600160a01b039190911660048201526024810185905260448101869052606490fd5b916001600160a01b03808416928315613658571692831561363f57600090838252600080516020613ed98339815191528060205260408320549184831061360c575082847fddf252ad1be2c89b69c2b068fc378daa952ba7f163c4a11628f55a4df523b3ef959360409388602097528652038282205586815220818154019055604051908152a3565b60405163391434e360e21b81526001600160a01b0391909116600482015260248101929092525060448101839052606490fd5b60405163ec442f0560e01b815260006004820152602490fd5b604051634b637e8f60e11b815260006004820152602490fd5b6001600160a01b031660008181527f4a9c097c866513af3cc7dc827c0f6d0047b0afe5503d41e27ed9ad22b37874cd60205260408120549091907f9bd4dbbde3e8c2a4c422fc593b5df31e3960da9ec402b66c87a010d0623ab46c90600080516020613f198339815191529060ff1661371b578184526020526040832082845260205260408320600160ff19825416179055600080516020613e79833981519152339380a4600190565b50505090565b6001600160a01b031660008181527f0517aee78b9180436652dcfb6f20d72f8a241b9231fc7941f9cee74f4b6480d360205260408120549091907faa5d998d0c4b42510868f0d0e7c0a96373abb1abcf4dacce3cd68c32dfecf1e590600080516020613f198339815191529060ff1661371b578184526020526040832082845260205260408320600160ff19825416179055600080516020613e79833981519152339380a4600190565b6001600160a01b031660008181527fadcc9e5138e1babd8d9829f890e27ec44d4e252c58e34ce3fa129c741d13373460205260408120549091907f4087820ac4f3f365dd6666f75a18a95ae63ded871b765505dc50ff63b8b8ad7a90600080516020613f198339815191529060ff1661371b578184526020526040832082845260205260408320600160ff19825416179055600080516020613e79833981519152339380a4600190565b6001600160a01b031660008181527fba497e86a689750256daf086e2b8feba953def9b723a3f9e563274cc492e774960205260408120549091907fb5635f8fcf25e4801550a062d4397a74f631be84ea8b1cff4a86e831f5c203dc90600080516020613f198339815191529060ff1661371b578184526020526040832082845260205260408320600160ff19825416179055600080516020613e79833981519152339380a4600190565b90600091808352600080516020613f1983398151915280602052604084209260018060a01b03169283855260205260ff6040852054161560001461371b578184526020526040832082845260205260408320600160ff19825416179055600080516020613e79833981519152339380a4600190565b90600091808352600080516020613f1983398151915280602052604084209260018060a01b03169283855260205260ff60408520541660001461371b57818452602052604083208284526020526040832060ff1981541690557ff6391f5c32d9c69d2a47ea670b442974b53935d1edc7fd64eb21e047a839171b339380a4600190565b6001600160a01b0390811680158015613afc575b613af55781600d54169081613ac45750506007546000198114613abf576004906020600093845416604051938480926278744560e21b82525afa918215610e5f578392613a8b575b5080821015613a865761304e9250612fd4565b505090565b9091506020813d602011613ab7575b81613aa760209383612eb0565b810103126117f857519038613a73565b3d9150613a9a565b905090565b6020919250602460405180948193632355178960e11b835260048301525afa90811561308757600091613194575090565b5050600090565b50308114613a2b565b600080516020613f598339815191526002815414613b235760029055565b604051633ee5aeb560e01b8152600490fd5b613b3d613c2c565b600f549091906001600160a01b0390811680151580613be1575b613b91575b5042601155600f54167f9b667543ac195d809e34c85813d76b4738f9e454b9334d6db8d7f035702e47a26020604051858152a2565b6000908282541690813b156117f85782916044839260405195869384926340c10f1960e01b845260048401528a60248401525af19081156107d5575015613b5c57613bdb90612e67565b38613b5c565b50831515613b57565b60ff600080516020613f798339815191525460401c1615613c0757565b604051631afcd79f60e31b8152600490fd5b81810292918115918404141715612f8457565b600f546001600160a01b0390811615613d4757600080546040516318160ddd60e01b81529260209291168284600481845afa93841561036e578294613d18575b509082602492604051938480926370a0823160e01b82528060048301525afa928315613d0b578193613cd1575b505050613cc4613cb2613ccd9264496cebb80094612fd4565b613cbe60115442612fd4565b90613c19565b60105490613c19565b0490565b9091809350813d8311613d04575b613ce98183612eb0565b8101031261036b575051613cc4613cb264496cebb800613c99565b503d613cdf565b50604051903d90823e3d90fd5b9093508281813d8311613d40575b613d308183612eb0565b8101031261167a57519282613c6c565b503d613d26565b50600090565b90919273d6488f3ff20B97113dcdE8FD73a032Ca917328e892833b156107c95760009360a492604051968795869463084a7e7960e31b865288600487015260018060a01b038092166024870152166044850152606484015260848301525af4801561308757613db95750565b613dc290612e67565b565b90604051602081019063313ce56760e01b825260048152604081018181106001600160401b03821117611664576040525160009384928392916001600160a01b03165afa3d15613e70573d90613e1982612ed1565b91613e276040519384612eb0565b82523d84602084013e5b80613e64575b613e41575b508190565b6020818051810103126117f8576020015160ff8111613e3c576001925060ff1690565b50602081511015613e37565b606090613e3156fe2f8788117e7eff1d82e926ec794901d17c78024a50270940304540a733656f0d2ae08a8e29253f69ac5d979a101956ab8f8d9d7ded63fa7a83b16fc47648eab052c63247e1f47db19d5ce0460030c497f067ca4cebf71ba98eeadabe20bace0352c63247e1f47db19d5ce0460030c497f067ca4cebf71ba98eeadabe20bace0052c63247e1f47db19d5ce0460030c497f067ca4cebf71ba98eeadabe20bace0402dd7bc7dec4dceedda775e58dd541e08a116c6c53815c0bd028192f7b62680046a2803e59a4de4e7a4c574b1243f25977ac4c77d5a1a4a609b5394cebb4a2aa9b779b17422d0df92223018b32b4d1fa46e071723d6817e2486d003becc55f00f0c57e16840df040f15088dc2f81fe391c3923bec73e23a9662efc9c229c6a00a264697066735822122078ef58c294b6ab6ff34d62db6d609b4b37efccbdd3ae30bfade6d31d5a8a4fa064736f6c63430008180033",
  "deployedBytecode": "0x60a0604052600436101561001257600080fd5b6000803560e01c806301e1d11414612d8757806301ffc9a714612d3057806306fdde0314612c8f57806307a2d13a14612c2d5780630835a3fc14612c0f578063095ea7b314612b5e5780630a28a47714612acc5780630e26f3ec14612a3b57806316b87ac0146129af57806318160ddd1461299457806323b872dd14612971578063248a9ca31461293757806329f3cef5146128715780632d772168146127f45780632f2ff15d146127a9578063313ce5671461274857806336568abe1461270057806338d52e0f146126b857806339ebf8231461261b578063402d267d146125f7578063405977e71461250957806340c10f191461243b5780634492e2001461237857806347b70db0146119fe57806348ea71271461192d5780634bbd71e91461185c5780634cdad506146117fc578063633f228c146116ef57806363d56c9a1461167e57806365cb6765146115545780636e547742146114985780636e553f651461140e57806370a08231146113c85780638212fd431461130d5780638aedaa6d146112e157806391d148541461128857806394bf804d146111e557806395d89b411461110457806399530b06146110765780639aa7df94146110585780639bbca88414610fe75780639dc29fac14610ed7578063a217fddf14610ebb578063a9059cbb14610e89578063b3d7f6b914610e6a578063b460af9414610d34578063b6cc2d1f14610c0f578063ba08765214610b03578063bb994d4814610a86578063bdc8144b14610a17578063c63d75b6146109f3578063c6e6f59214610993578063ce96cb7714610922578063cf206a7914610830578063d547741f146107e1578063d905777e14610731578063dd62ed3e146106e7578063dd8aaa4f146106c1578063df69b22a14610658578063e74b981b146105db578063edb45ffd1461056b578063ef8b30f714610544578063f6d7bfa014610422578063f7e47f781461039a578063fc7b9c181461037c5763fe56e232146102f357600080fd5b3461036b57602036600319011261036b5761030c61341e565b8073__$3ddc574512022f331a6a4c7e4bbb5c67b6$__803b1561037957816044916040519283809263d0293cdf60e01b825284600483015260043560248301525af4801561036e5761035b5750f35b61036490612e67565b61036b5780f35b80fd5b6040513d84823e3d90fd5b50fd5b503461036b578060031936011261036b576020600154604051908152f35b503461036b57602036600319011261036b57806103b5612df2565b6103bd61330a565b73__$3ddc574512022f331a6a4c7e4bbb5c67b6$__90813b1561041e57604051635a5994d360e11b8152600481018490526001600160a01b03909116602482015260016044820152908290829060649082905af4801561036e5761035b5750f35b5050fd5b503461036b57604036600319011261036b5761043c612df2565b90610445613b05565b3360009081527fba497e86a689750256daf086e2b8feba953def9b723a3f9e563274cc492e774960205260409020547fb5635f8fcf25e4801550a062d4397a74f631be84ea8b1cff4a86e831f5c203dc929060ff161561052557819073__$792584d84f72d9431342ae3d286007221a$__90813b1561041e578290606460405180948193633c4c444160e01b835285600484015260018060a01b0316602483015260243560448301525af4801561036e57610511575b506001600080516020613f598339815191525580f35b61051a90612e67565b61036b5780826104fb565b60405163e2517d3f60e01b815233600482015260248101849052604490fd5b503461036b57602036600319011261036b576020610563600435613265565b604051908152f35b503461036b57602036600319011261036b5761058561330a565b8073__$3ddc574512022f331a6a4c7e4bbb5c67b6$__803b156103795781606491604051928380926306e5b7e760e21b82528460048301526004356024830152600160448301525af4801561036e5761035b5750f35b503461036b57602036600319011261036b57806105f6612df2565b6105fe61341e565b73__$3ddc574512022f331a6a4c7e4bbb5c67b6$__90813b1561041e576040516342320d6160e11b8152600481018490526001600160a01b039091166024820152908290829060449082905af4801561036e5761035b5750f35b503461036b57602036600319011261036b5761067261341e565b8073__$3ddc574512022f331a6a4c7e4bbb5c67b6$__803b15610379578160449160405192838092631a5db58960e21b825284600483015260043560248301525af4801561036e5761035b5750f35b503461036b576106e46106d336612e32565b916106df3033146130cc565b6134ad565b80f35b503461036b57604036600319011261036b57610701612df2565b61071261070c612e08565b91613093565b9060018060a01b03166000526020526020604060002054604051908152f35b503461036b576020908160031936011261036b5761074d612df2565b604051634b2ec7c960e01b8152600481018390526001600160a01b039091166024820152828160448173__$1814f5c45fb4ddda68bfc681da060a464a$__5af49182156107d557916107a3575b50604051908152f35b90508181813d83116107ce575b6107ba8183612eb0565b810103126107c957513861079a565b600080fd5b503d6107b0565b604051903d90823e3d90fd5b503461036b57604036600319011261036b5761082c600435610801612e08565b90808452600080516020613f19833981519152602052610827600160408620015461347a565b613994565b5080f35b503461036b578060031936011261036b5760018060a01b0380915416906001549060025490600554600654600754600854600954600a5491600b549387600c54169560ff89600d5416988a600e54169a600f54169b6010549d6011549f60405160805260805152602060805101526040608051015281811615156060608051015260081c16151560808051015260a0608051015260c0608051015260e06080510152610100608051015261012060805101526101406080510152610160608051015261018060805101526101a060805101526101c060805101526101e060805101526102006080510152610220608051f35b503461036b576020908160031936011261036b5761093e612df2565b6040516333fefd2b60e21b8152600481018390526001600160a01b039091166024820152828160448173__$1814f5c45fb4ddda68bfc681da060a464a$__5af49182156107d557916107a35750604051908152f35b503461036b576020908160031936011261036b576040516313567f2960e01b81526004808201839052356024820152828160448173__$1814f5c45fb4ddda68bfc681da060a464a$__5af49182156107d557916107a35750604051908152f35b503461036b57602036600319011261036b576020610563610a12612df2565b613212565b503461036b57602036600319011261036b57610a3161330a565b8073__$3ddc574512022f331a6a4c7e4bbb5c67b6$__803b156103795781606491604051928380926306e5b7e760e21b825284600483015260043560248301528460448301525af4801561036e5761035b5750f35b503461036b57602036600319011261036b5780610aa1612df2565b610aa96132ae565b73__$3ddc574512022f331a6a4c7e4bbb5c67b6$__90813b1561041e578290606460405180948193634dcf1cf760e11b835285600484015260018060a01b031660248301528460448301525af4801561036e5761035b5750f35b503461036b57610b1236612f42565b610b1d939293613b35565b506040519163b3fc5db960e01b83526000600484015284602484015260006044840152602094858460648173__$1814f5c45fb4ddda68bfc681da060a464a$__5af4938415610c045790869392918695610bd0575b50604051610ba291610b8382612e95565b87825260405163ed607eef60e01b8152968795869533600488016131c3565b038173__$4f0348743f984310a2d0be11a6745499c5$__5af49182156107d557916107a35750604051908152f35b8481959296503d8311610bfd575b610be88183612eb0565b810103126107c957610ba28693519490610b72565b503d610bde565b6040513d87823e3d90fd5b503461036b57602036600319011261036b57610c29612df2565b610c31613b05565b3360009081527fa3f49cd9abc069fadad1b5960d4e73636b82c5d06bb74023c9881d605e88b70260205260409020547fb88f06de7a467621d4739d66b596fe556082f25ab13291a5e3412ebfe6a282c79060ff1615610d16575060408051630ab19c7560e01b8152600481018490526001600160a01b0390921660248301528160448173__$792584d84f72d9431342ae3d286007221a$__5af4801561036e57610ceb57506001600080516020613f598339815191525580f35b604090813d8311610d0f575b610d018183612eb0565b8101031261036b57386104fb565b503d610cf7565b6044906040519063e2517d3f60e01b82523360048301526024820152fd5b503461036b57610d4336612f42565b919092610d4e613b35565b5060405192633413a49160e11b84526000600485015282602485015260016044850152602094858560648173__$1814f5c45fb4ddda68bfc681da060a464a$__5af4948515610e5f57908692918496610e2e575b50610dd2604051610db281612e95565b85815287604051978895869563ed607eef60e01b875233600488016131c3565b038173__$4f0348743f984310a2d0be11a6745499c5$__5af49081156107d55750908391610e05575b5050604051908152f35b813d8311610e27575b610e188183612eb0565b810103126107c9578138610dfb565b503d610e0e565b8381949297503d8311610e58575b610e468183612eb0565b810103126107c9578591519438610da2565b503d610e3c565b6040513d85823e3d90fd5b503461036b57602036600319011261036b57602061056360043561314b565b503461036b57604036600319011261036b57610eb0610ea6612df2565b6024359033613583565b602060405160018152f35b503461036b578060031936011261036b57602090604051908152f35b503461036b57604036600319011261036b57610ef1612df2565b90602435610f003033146130cc565b6001600160a01b038316908115610fce5781600052600080516020613ed98339815191528060205260406000205494828610610f9d5750817fddf252ad1be2c89b69c2b068fc378daa952ba7f163c4a11628f55a4df523b3ef926000959660209386885284520360408620557f52c63247e1f47db19d5ce0460030c497f067ca4cebf71ba98eeadabe20bace02818154039055604051908152a380f35b60405163391434e360e21b81526001600160a01b039190911660048201526024810186905260448101839052606490fd5b604051634b637e8f60e11b815260048101849052602490fd5b503461036b57602036600319011261036b5780611002612f33565b61100a6133c2565b73__$3ddc574512022f331a6a4c7e4bbb5c67b6$__90813b1561041e578290604460405180948193639425dfc760e01b8352856004840152151560248301525af4801561036e5761035b5750f35b503461036b578060031936011261036b576020600254604051908152f35b503461036b578060031936011261036b57604051631f387e1d60e21b8152600481018290529060208260248173__$1814f5c45fb4ddda68bfc681da060a464a$__5af49081156107d557906110d1575b602090604051908152f35b506020813d6020116110fc575b816110eb60209383612eb0565b810103126107c957602090516110c6565b3d91506110de565b503461036b578060031936011261036b576040519080600080516020613ef9833981519152805461113481612f9a565b808652926020926001928084169081156111b65750600114611171575b61116d8761116181890382612eb0565b60405191829182612da9565b0390f35b81529350600080516020613f398339815191525b8385106111a3575050505081016020016111618261116d3880611151565b8054868601840152938201938101611185565b91505086955061116d9693506020925061116194915060ff191682840152151560051b82010192933880611151565b503461036b57604036600319011261036b57600435611202612e08565b61120a613b05565b611212613b35565b5061121c81613212565b808311611255575061123b8261123360209461314b565b809333613d4d565b6001600080516020613f5983398151915255604051908152f35b60405163284ff66760e01b81526001600160a01b0392909216600483015260248201929092526044810191909152606490fd5b503461036b57604036600319011261036b5760406112a4612e08565b916004358152600080516020613f19833981519152602052209060018060a01b0316600052602052602060ff604060002054166040519015158152f35b503461036b578060031936011261036b5760206105636112ff612fe1565b611307613c2c565b90612f77565b503461036b57602036600319011261036b573360009081527ffaadd6a40a37543b0ddfe1e3f3f266e11072592917e21d6a890803d0d7d6f75b60205260409020547f56df694eb35c748e42e9628d52ed28575d4046c5cb4ba53578a35cacecaaf9f99060ff1615610d1657508073__$3ddc574512022f331a6a4c7e4bbb5c67b6$__803b156103795781604491604051928380926307d4432d60e51b825284600483015260043560248301525af4801561036e5761035b5750f35b503461036b57602036600319011261036b576020906040906001600160a01b036113f0612df2565b168152600080516020613ed983398151915283522054604051908152f35b503461036b57604036600319011261036b5760043561142b612e08565b611433613b05565b61143b613b35565b5061144581613a17565b8083116114655760208361123b8461145c83613265565b92839133613d4d565b604051633c8097d960e11b81526001600160a01b0392909216600483015260248201929092526044810191909152606490fd5b503461036b57604036600319011261036b576114b2612df2565b6024358015158091036107c95782916114c9613b05565b73__$3ddc574512022f331a6a4c7e4bbb5c67b6$__91823b1561154f5760405163ce4c748160e01b8152600481018590526001600160a01b0390921660248301526044820152908290829060649082905af4801561036e5761153b57506001600080516020613f598339815191525580f35b61154490612e67565b61036b5780386104fb565b505050fd5b503461036b57606036600319011261036b5761156e612df2565b90604435906001600160401b0380831161167a573660238401121561167a578260040135908111611664578060051b93602094604051926115b187830185612eb0565b835260248684019186010194368611611660579060248794939201905b86821061164957505061161b939450604051938492839263233d87e760e01b845287600485015260018060a01b03166024840152602435604484015260806064840152608483019061310e565b038173__$1814f5c45fb4ddda68bfc681da060a464a$__5af49182156107d557916107a35750604051908152f35b84809161165584612e1e565b8152019101906115ce565b8480fd5b634e487b7160e01b600052604160045260246000fd5b5080fd5b503461036b57602036600319011261036b5780611699612f33565b6116a1613366565b73__$3ddc574512022f331a6a4c7e4bbb5c67b6$__90813b1561041e57829060446040518094819363de9f508b60e01b8352856004840152151560248301525af4801561036e5761035b5750f35b503461036b57602090602060031936011261036b57600435916001600160401b038084116117f857366023850112156117f85783600401359081116117f8573660248260051b860101116117f857611745613b05565b61174d6133c2565b73__$3ddc574512022f331a6a4c7e4bbb5c67b6$__90813b156117f457919360405192637d35a6e560e11b845280604485018660048701526040602487015252602460648501920195855b8281106117cb578680878181808903818b5af4801561036e5761051157506001600080516020613f598339815191525580f35b9091928280600192838060a01b036117e28c612e1e565b16815201980191019692919096611798565b8380fd5b8280fd5b503461036b576020908160031936011261036b57604051630c2424d960e31b81526004808201839052356024820152828160448173__$1814f5c45fb4ddda68bfc681da060a464a$__5af49182156107d557916107a35750604051908152f35b503461036b57602036600319011261036b57611876612df2565b3360009081527f4166860bad6fb293cdffa9a9ce4c05d6e5359c7e9205745eae341f3036af237a60205260409020547f0e5c3557c557b929246c71f8bdd2b8d41adac718fe1473b2c5260a78b189cd5192919060ff161561052557819073__$3ddc574512022f331a6a4c7e4bbb5c67b6$__90813b1561041e57604051632248a0d360e21b8152600481018490526001600160a01b039091166024820152908290829060449082905af4801561036e5761035b5750f35b503461036b57602036600319011261036b57611947612df2565b3360009081527f9a4cd071f2ff548e185a4af9a22df0932b4f41be60048045cf84c207ed3d583860205260409020547f6ba016d3b65b86283908b0fb3b490838033bbcf01b3aebc405616e0c981d007392919060ff161561052557819073__$3ddc574512022f331a6a4c7e4bbb5c67b6$__90813b1561041e5760405163d55d582b60e01b8152600481018490526001600160a01b039091166024820152908290829060449082905af4801561036e5761035b5750f35b503461036b5760c036600319011261036b576001600160a01b0390600435808316900361036b576024356001600160401b03811161167a57611a44903690600401612eec565b6044356001600160401b0381116117f857611a63903690600401612eec565b928060843516608435036107c9578060a4351660a435036107c957600080516020613f7983398151915254916001600160401b03831680159081612368575b600114908161235e575b159081612355575b506123435760016001600160401b0319841617600080516020613f798339815191525560ff8360401c1615612316575b611aec613bea565b611af4613bea565b8051906001600160401b038211612302578190611b1f600080516020613eb983398151915254612f9a565b601f8111612283575b50602090601f83116001146121f35786926121e8575b50508160011b916000199060031b1c191617600080516020613eb9833981519152555b83516001600160401b0381116121d457611b89600080516020613ef983398151915254612f9a565b601f811161215c575b506020601f82116001146120cf57849582939495926120c4575b50508160011b916000199060031b1c191617600080516020613ef9833981519152555b611bd7613bea565b611bdf613bea565b611bea600435613dc4565b90156120bc575b7f0773e532dfede91f04b12a73d3d2acd361424f41f76b4fb79f090161e36b4e0091825490600435169160ff60a01b9060a01b16906affffffffffffffffffffff60a81b1617179055611c42613bea565b611c4a613bea565b6001600080516020613f5983398151915255611c64613bea565b8173__$54d6f0ceb598a52c8007b3cf331120a868$__803b1561167a578160449160405192838092632397c4e160e21b825284600483015260643560248301525af4801561036e576120a8575b505060ff90611cc1608435613671565b50611ccd608435613721565b50611cd960a435613721565b50611ce560a4356137cb565b50611cf160a435613875565b507f9bd4dbbde3e8c2a4c422fc593b5df31e3960da9ec402b66c87a010d0623ab46c80600052600080516020613f1983398151915260205260016040600020018181549155817fbd79b86ffe0ab8e8776151514217cd7cacd52c909f66475c3af44e129f0b00ff918183600080a4817faa5d998d0c4b42510868f0d0e7c0a96373abb1abcf4dacce3cd68c32dfecf1e580600052600160406000200190828254925583600080a4817fbc6b16c313697c03242487da72beb3e512a6f0f23d77bbc347355f0e763f334d80600052600160406000200190828254925583600080a4817f6ba016d3b65b86283908b0fb3b490838033bbcf01b3aebc405616e0c981d007380600052600160406000200190828254925583600080a4817fbee4eff7f43f50370c5c13e95885f9da68bec8d32cae11dd550acc392d51c0ec80600052600160406000200190828254925583600080a4817fb88f06de7a467621d4739d66b596fe556082f25ab13291a5e3412ebfe6a282c780600052600160406000200190828254925583600080a4817f4087820ac4f3f365dd6666f75a18a95ae63ded871b765505dc50ff63b8b8ad7a80600052600160406000200190828254925583600080a4817fb5635f8fcf25e4801550a062d4397a74f631be84ea8b1cff4a86e831f5c203dc80600052600160406000200190828254925583600080a4817f887f610dcfd5fcb5c1f7698dc3962d3f7c9e3ac366693c640c2cb4541798cce580600052600160406000200190828254925583600080a4817f0e5c3557c557b929246c71f8bdd2b8d41adac718fe1473b2c5260a78b189cd5180600052600160406000200190828254925583600080a4817f56df694eb35c748e42e9628d52ed28575d4046c5cb4ba53578a35cacecaaf9f980600052600160406000200190828254925583600080a4817f8ec1c37cf64b8ee6251b9f56a2381f08fce59092560623126b6f8aa4843227fb80600052600160406000200190828254925583600080a4817fd8ff363222baefa421b7eedd5f7f531b7be1f7001edc7ee4ad694cde369f31ee80600052600160406000200190828254925583600080a47fd40d5b35459acbc45a4f502ed75abb26933ccc9216a51d40c846481a5274c68a806000526001604060002001918383549355600080a460401c161561204e5780f35b68ff000000000000000019600080516020613f798339815191525416600080516020613f79833981519152557fc7f505b2f371ae2175ee4913f4499e1f2633a7b5936321eed1cdaeb6115181d2602060405160018152a180f35b6120b190612e67565b61167a578138611cb1565b506012611bf1565b015190503880611bac565b600080516020613ef98339815191528552600080516020613f3983398151915290855b601f1984168110612144575060019394959683601f1981161061212b575b505050811b01600080516020613ef983398151915255611bcf565b015160001960f88460031b161c19169055388080612110565b9091602060018192858b0151815501930191016120f2565b600080516020613ef98339815191528552601f820160051c600080516020613f398339815191520190602083106121be575b601f0160051c600080516020613f3983398151915201905b8181106121b35750611b92565b8581556001016121a6565b600080516020613f39833981519152915061218e565b634e487b7160e01b84526041600452602484fd5b015190503880611b3e565b9250600080516020613eb98339815191528652600080516020613e998339815191529086935b601f1984168510612268576001945083601f1981161061224f575b505050811b01600080516020613eb983398151915255611b61565b015160001960f88460031b161c19169055388080612234565b81810151835560209485019460019093019290910190612219565b909150600080516020613eb98339815191528652601f830160051c600080516020613e9983398151915201602084106122ed575b908392915b601f820160051c600080516020613e998339815191520181106122df5750611b28565b8781558493506001016122bc565b50600080516020613e998339815191526122b7565b634e487b7160e01b85526041600452602485fd5b68ffffffffffffffffff1983166801000000000000000117600080516020613f7983398151915255611ae4565b60405163f92ee8a960e01b8152600490fd5b90501538611ab4565b303b159150611aac565b604085901c60ff16159150611aa2565b503461036b57606036600319011261036b57612392612df2565b61239a613b05565b6123a2613366565b60405190638dd618f560e01b825282600483015260018060a01b031660248201526024356044820152604435606482015260208160848173__$792584d84f72d9431342ae3d286007221a$__5af4801561036e5761241057506001600080516020613f598339815191525580f35b602090813d8311612434575b6124268183612eb0565b810103126107c957386104fb565b503d61241c565b503461036b57604036600319011261036b57612455612df2565b602435906124643033146130cc565b6001600160a01b03169081156124f0577fddf252ad1be2c89b69c2b068fc378daa952ba7f163c4a11628f55a4df523b3ef60206000927f52c63247e1f47db19d5ce0460030c497f067ca4cebf71ba98eeadabe20bace026124c6828254612f77565b9055848452600080516020613ed9833981519152825260408420818154019055604051908152a380f35b60405163ec442f0560e01b815260048101849052602490fd5b503461036b57604036600319011261036b57612523612df2565b9061252c613b05565b3360009081527ff495fdbfca8d2976096e9633d5792e8da7dcb1810952a4535dbeac0d0254195860205260409020547fd8ff363222baefa421b7eedd5f7f531b7be1f7001edc7ee4ad694cde369f31ee929060ff161561052557819073__$792584d84f72d9431342ae3d286007221a$__90813b1561041e578290606460405180948193632dd9caaf60e11b835285600484015260018060a01b0316602483015260243560448301525af4801561036e5761051157506001600080516020613f598339815191525580f35b503461036b57602036600319011261036b576020610563612616612df2565b613a17565b503461036b57602036600319011261036b57604060809161263a612df2565b816060845161264881612e7a565b8281528260208201528286820152015260018060a01b0316815260036020522060405161267481612e7a565b815491828252600181015460208301908152606060036002840154936040860194855201549301928352604051938452516020840152516040830152516060820152f35b503461036b578060031936011261036b577f0773e532dfede91f04b12a73d3d2acd361424f41f76b4fb79f090161e36b4e00546040516001600160a01b039091168152602090f35b503461036b57604036600319011261036b5761271a612e08565b336001600160a01b038216036127365761082c90600435613994565b60405163334bd91960e11b8152600490fd5b503461036b578060031936011261036b5760ff7f0773e532dfede91f04b12a73d3d2acd361424f41f76b4fb79f090161e36b4e005460a01c169060ff821161279557602082604051908152f35b634e487b7160e01b81526011600452602490fd5b503461036b57604036600319011261036b5761082c6004356127c9612e08565b90808452600080516020613f198339815191526020526127ef600160408620015461347a565b61391f565b503461036b57602036600319011261036b578061280f612df2565b61281761330a565b73__$3ddc574512022f331a6a4c7e4bbb5c67b6$__90813b1561041e578290606460405180948193635a5994d360e11b835285600484015260018060a01b031660248301528460448301525af4801561036e5761035b5750f35b503461036b578060031936011261036b5760405180916004549081835260208093018092600483527f8a35acfbc15ff81a39ae7d344fd709f28e8600b4aa8c65c6b64bfe7fe36bd19b90835b81811061291a57505050846128d3910385612eb0565b60405193838594850191818652518092526040850193925b8281106128fa57505050500390f35b83516001600160a01b0316855286955093810193928101926001016128eb565b82546001600160a01b0316845292860192600192830192016128bd565b503461036b57602036600319011261036b57600160406020926004358152600080516020613f198339815191528452200154604051908152f35b503461036b57610eb061298336612e32565b9161298f8333836134ad565b613583565b503461036b578060031936011261036b576020610563612fe1565b503461036b57602036600319011261036b576129c9612df2565b6129d16132ae565b8173__$3ddc574512022f331a6a4c7e4bbb5c67b6$__91823b1561167a57604051634dcf1cf760e11b8152600481018390526001600160a01b0390911660248201526001604482015291829060649082905af4801561036e57612a32575080f35b6106e490612e67565b503461036b578060031936011261036b576040516310e005b160e01b81526004810182905260208160248173__$1814f5c45fb4ddda68bfc681da060a464a$__5af490811561036e578291612a96575b602082604051908152f35b90506020813d602011612ac4575b81612ab160209383612eb0565b8101031261167a57602091505138612a8b565b3d9150612aa4565b503461036b576020908160031936011261036b576040516361af063360e11b81526004808201839052356024820152828160448173__$1814f5c45fb4ddda68bfc681da060a464a$__5af49182156107d5578092612b2e575050604051908152f35b9091508282813d8311612b57575b612b468183612eb0565b8101031261036b5750513880610dfb565b503d612b3c565b503461036b57604036600319011261036b57612b78612df2565b602435903315612bf6576001600160a01b0316918215612bde5760408291612b9f33613093565b85825260205220556040519081527f8c5be1e5ebec7d5bd14f71427d1e84f3dd0314c0f7b2291e5b200ac8c7c3b92560203392a3602060405160018152f35b60249060405190634a1406b160e11b82526004820152fd5b60405163e602df0560e01b815260048101849052602490fd5b503461036b578060031936011261036b576020600654604051908152f35b503461036b576020908160031936011261036b576040516310968a0560e01b81526004808201839052356024820152828160448173__$1814f5c45fb4ddda68bfc681da060a464a$__5af49182156107d5578092612b2e575050604051908152f35b503461036b578060031936011261036b576040519080600080516020613eb98339815191528054612cbf81612f9a565b808652926020926001928084169081156111b65750600114612ceb5761116d8761116181890382612eb0565b81529350600080516020613e998339815191525b838510612d1d575050505081016020016111618261116d3880611151565b8054868601840152938201938101612cff565b503461036b57602036600319011261036b5760043563ffffffff60e01b811680910361167a57602090637965db0b60e01b8114908115612d76575b506040519015158152f35b6301ffc9a760e01b14905082612d6b565b503461036b578060031936011261036b57602061056360025460015490612f77565b6020808252825181830181905290939260005b828110612dde57505060409293506000838284010152601f8019910116010190565b818101860151848201604001528501612dbc565b600435906001600160a01b03821682036107c957565b602435906001600160a01b03821682036107c957565b35906001600160a01b03821682036107c957565b60609060031901126107c9576001600160a01b039060043582811681036107c9579160243590811681036107c9579060443590565b6001600160401b03811161166457604052565b608081019081106001600160401b0382111761166457604052565b602081019081106001600160401b0382111761166457604052565b90601f801991011681019081106001600160401b0382111761166457604052565b6001600160401b03811161166457601f01601f191660200190565b81601f820112156107c957803590612f0382612ed1565b92612f116040519485612eb0565b828452602083830101116107c957816000926020809301838601378301015290565b6004359081151582036107c957565b60609060031901126107c957600435906001600160a01b039060243582811681036107c9579160443590811681036107c95790565b91908201809211612f8457565b634e487b7160e01b600052601160045260246000fd5b90600182811c92168015612fca575b6020831014612fb457565b634e487b7160e01b600052602260045260246000fd5b91607f1691612fa9565b91908203918211612f8457565b7f52c63247e1f47db19d5ce0460030c497f067ca4cebf71ba98eeadabe20bace0254604051639a17075960e01b8152600060048201529060208260248173__$d8260e8b02a4a6ab3ae2f76431c00289f4$__5af490811561308757600091613051575b61304e9250612fd4565b90565b90506020823d60201161307f575b8161306c60209383612eb0565b810103126107c95761304e915190613044565b3d915061305f565b6040513d6000823e3d90fd5b6001600160a01b031660009081527f52c63247e1f47db19d5ce0460030c497f067ca4cebf71ba98eeadabe20bace016020526040902090565b156130d357565b60405162461bcd60e51b815260206004820152601360248201527213db9b1e481d985d5b1d0818d85b881b5a5b9d606a1b6044820152606490fd5b90815180825260208080930193019160005b82811061312e575050505090565b83516001600160a01b031685529381019392810192600101613120565b60405190630d25bbb560e01b825260006004830152602482015260208160448173__$1814f5c45fb4ddda68bfc681da060a464a$__5af490811561308757600091613194575090565b90506020813d6020116131bb575b816131af60209383612eb0565b810103126107c9575190565b3d91506131a2565b60008082526001600160a01b039283166020830152928216604082015292166060830152608082019290925260a081019290925260c082015261010060e0820181905261304e9291019061310e565b60405163a72a276960e01b8152600060048201526001600160a01b03909116602482015260208160448173__$1814f5c45fb4ddda68bfc681da060a464a$__5af490811561308757600091613194575090565b6040519063665c96db60e11b825260006004830152602482015260208160448173__$1814f5c45fb4ddda68bfc681da060a464a$__5af490811561308757600091613194575090565b3360009081527f10d70e3a3777c025b5e9ce76933ad9e855317d269f27e1a4bc94e9698e3f665860205260409020547fbc6b16c313697c03242487da72beb3e512a6f0f23d77bbc347355f0e763f334d9060ff1615610d165750565b3360009081527f6c0c2d1d14bc83a2216e58daf9a0cd7e298111de4a5b7b16aa980076b0f85ff960205260409020547f887f610dcfd5fcb5c1f7698dc3962d3f7c9e3ac366693c640c2cb4541798cce59060ff1615610d165750565b3360009081527fadcc9e5138e1babd8d9829f890e27ec44d4e252c58e34ce3fa129c741d13373460205260409020547f4087820ac4f3f365dd6666f75a18a95ae63ded871b765505dc50ff63b8b8ad7a9060ff1615610d165750565b3360009081527fcb9217e6f561c641ce68559bb80a1db31d7146ae067b9bbb49f5d5b07066d7b860205260409020547fbee4eff7f43f50370c5c13e95885f9da68bec8d32cae11dd550acc392d51c0ec9060ff1615610d165750565b3360009081527f4a9c097c866513af3cc7dc827c0f6d0047b0afe5503d41e27ed9ad22b37874cd60205260409020547f9bd4dbbde3e8c2a4c422fc593b5df31e3960da9ec402b66c87a010d0623ab46c9060ff1615610d165750565b80600052600080516020613f1983398151915260205260406000203360005260205260ff6040600020541615610d165750565b91906134b883613093565b9260018060a01b03908183169160009583875260205260408620549360001985106134e7575b50505050505050565b8585106135525750811615613539578115613520579061350a6040949392613093565b90855260205203912055388080808080806134de565b604051634a1406b160e11b815260048101869052602490fd5b60405163e602df0560e01b815260048101869052602490fd5b604051637dc7a0d960e11b81526001600160a01b039190911660048201526024810185905260448101869052606490fd5b916001600160a01b03808416928315613658571692831561363f57600090838252600080516020613ed98339815191528060205260408320549184831061360c575082847fddf252ad1be2c89b69c2b068fc378daa952ba7f163c4a11628f55a4df523b3ef959360409388602097528652038282205586815220818154019055604051908152a3565b60405163391434e360e21b81526001600160a01b0391909116600482015260248101929092525060448101839052606490fd5b60405163ec442f0560e01b815260006004820152602490fd5b604051634b637e8f60e11b815260006004820152602490fd5b6001600160a01b031660008181527f4a9c097c866513af3cc7dc827c0f6d0047b0afe5503d41e27ed9ad22b37874cd60205260408120549091907f9bd4dbbde3e8c2a4c422fc593b5df31e3960da9ec402b66c87a010d0623ab46c90600080516020613f198339815191529060ff1661371b578184526020526040832082845260205260408320600160ff19825416179055600080516020613e79833981519152339380a4600190565b50505090565b6001600160a01b031660008181527f0517aee78b9180436652dcfb6f20d72f8a241b9231fc7941f9cee74f4b6480d360205260408120549091907faa5d998d0c4b42510868f0d0e7c0a96373abb1abcf4dacce3cd68c32dfecf1e590600080516020613f198339815191529060ff1661371b578184526020526040832082845260205260408320600160ff19825416179055600080516020613e79833981519152339380a4600190565b6001600160a01b031660008181527fadcc9e5138e1babd8d9829f890e27ec44d4e252c58e34ce3fa129c741d13373460205260408120549091907f4087820ac4f3f365dd6666f75a18a95ae63ded871b765505dc50ff63b8b8ad7a90600080516020613f198339815191529060ff1661371b578184526020526040832082845260205260408320600160ff19825416179055600080516020613e79833981519152339380a4600190565b6001600160a01b031660008181527fba497e86a689750256daf086e2b8feba953def9b723a3f9e563274cc492e774960205260408120549091907fb5635f8fcf25e4801550a062d4397a74f631be84ea8b1cff4a86e831f5c203dc90600080516020613f198339815191529060ff1661371b578184526020526040832082845260205260408320600160ff19825416179055600080516020613e79833981519152339380a4600190565b90600091808352600080516020613f1983398151915280602052604084209260018060a01b03169283855260205260ff6040852054161560001461371b578184526020526040832082845260205260408320600160ff19825416179055600080516020613e79833981519152339380a4600190565b90600091808352600080516020613f1983398151915280602052604084209260018060a01b03169283855260205260ff60408520541660001461371b57818452602052604083208284526020526040832060ff1981541690557ff6391f5c32d9c69d2a47ea670b442974b53935d1edc7fd64eb21e047a839171b339380a4600190565b6001600160a01b0390811680158015613afc575b613af55781600d54169081613ac45750506007546000198114613abf576004906020600093845416604051938480926278744560e21b82525afa918215610e5f578392613a8b575b5080821015613a865761304e9250612fd4565b505090565b9091506020813d602011613ab7575b81613aa760209383612eb0565b810103126117f857519038613a73565b3d9150613a9a565b905090565b6020919250602460405180948193632355178960e11b835260048301525afa90811561308757600091613194575090565b5050600090565b50308114613a2b565b600080516020613f598339815191526002815414613b235760029055565b604051633ee5aeb560e01b8152600490fd5b613b3d613c2c565b600f549091906001600160a01b0390811680151580613be1575b613b91575b5042601155600f54167f9b667543ac195d809e34c85813d76b4738f9e454b9334d6db8d7f035702e47a26020604051858152a2565b6000908282541690813b156117f85782916044839260405195869384926340c10f1960e01b845260048401528a60248401525af19081156107d5575015613b5c57613bdb90612e67565b38613b5c565b50831515613b57565b60ff600080516020613f798339815191525460401c1615613c0757565b604051631afcd79f60e31b8152600490fd5b81810292918115918404141715612f8457565b600f546001600160a01b0390811615613d4757600080546040516318160ddd60e01b81529260209291168284600481845afa93841561036e578294613d18575b509082602492604051938480926370a0823160e01b82528060048301525afa928315613d0b578193613cd1575b505050613cc4613cb2613ccd9264496cebb80094612fd4565b613cbe60115442612fd4565b90613c19565b60105490613c19565b0490565b9091809350813d8311613d04575b613ce98183612eb0565b8101031261036b575051613cc4613cb264496cebb800613c99565b503d613cdf565b50604051903d90823e3d90fd5b9093508281813d8311613d40575b613d308183612eb0565b8101031261167a57519282613c6c565b503d613d26565b50600090565b90919273__$209f7610f7b09602dd9c7c2ef5b135794a$__92833b156107c95760009360a492604051968795869463084a7e7960e31b865288600487015260018060a01b038092166024870152166044850152606484015260848301525af4801561308757613db95750565b613dc290612e67565b565b90604051602081019063313ce56760e01b825260048152604081018181106001600160401b03821117611664576040525160009384928392916001600160a01b03165afa3d15613e70573d90613e1982612ed1565b91613e276040519384612eb0565b82523d84602084013e5b80613e64575b613e41575b508190565b6020818051810103126117f8576020015160ff8111613e3c576001925060ff1690565b50602081511015613e37565b606090613e3156fe2f8788117e7eff1d82e926ec794901d17c78024a50270940304540a733656f0d2ae08a8e29253f69ac5d979a101956ab8f8d9d7ded63fa7a83b16fc47648eab052c63247e1f47db19d5ce0460030c497f067ca4cebf71ba98eeadabe20bace0352c63247e1f47db19d5ce0460030c497f067ca4cebf71ba98eeadabe20bace0052c63247e1f47db19d5ce0460030c497f067ca4cebf71ba98eeadabe20bace0402dd7bc7dec4dceedda775e58dd541e08a116c6c53815c0bd028192f7b62680046a2803e59a4de4e7a4c574b1243f25977ac4c77d5a1a4a609b5394cebb4a2aa9b779b17422d0df92223018b32b4d1fa46e071723d6817e2486d003becc55f00f0c57e16840df040f15088dc2f81fe391c3923bec73e23a9662efc9c229c6a00a264697066735822122078ef58c294b6ab6ff34d62db6d609b4b37efccbdd3ae30bfade6d31d5a8a4fa064736f6c63430008180033",
  "libraries": {
    "ERC20Logic": "0x68C797C13888a2CdF9c533e23e2A929518B9AAD2",
    "ERC4626Logic": "0x6263D4Ec54A3905CDe982f21E76Ae3C3EC922789",
    "InitializeLogic": "0xA4AC0B2b73d56E1698e25e604E53Fa8cC169523C",
    "DepositLogic": "0xd6488f3ff20B97113dcdE8FD73a032Ca917328e8",
    "WithdrawLogic": "0xb355b3a17864Ab4261E8C2e79F071397Fa4a2c28",
    "UnlockSharesLogic": "0xFAE954E4F223ac1E2cC7437563dBB5B2E2a3fB9E",
    "DebtLogic": "0x0B035d034EDFd65225BdA2a7C8D45a5a739a1469",
    "ConfiguratorLogic": "0x8C94E2732b8E31276bf6C3Cd30644C8Ef28E47c4"
  },
  "devdoc": {
    "errors": {
      "AccessControlBadConfirmation()": [
        {
          "details": "The caller of a function is not the expected one. NOTE: Don't confuse with {AccessControlUnauthorizedAccount}."
        }
      ],
      "AccessControlUnauthorizedAccount(address,bytes32)": [
        {
          "details": "The `account` is missing a role."
        }
      ],
      "ERC20InsufficientAllowance(address,uint256,uint256)": [
        {
          "details": "Indicates a failure with the `spender`s `allowance`. Used in transfers.",
          "params": {
            "allowance": "Amount of tokens a `spender` is allowed to operate with.",
            "needed": "Minimum amount required to perform a transfer.",
            "spender": "Address that may be allowed to operate on tokens without being their owner."
          }
        }
      ],
      "ERC20InsufficientBalance(address,uint256,uint256)": [
        {
          "details": "Indicates an error related to the current `balance` of a `sender`. Used in transfers.",
          "params": {
            "balance": "Current balance for the interacting account.",
            "needed": "Minimum amount required to perform a transfer.",
            "sender": "Address whose tokens are being transferred."
          }
        }
      ],
      "ERC20InvalidApprover(address)": [
        {
          "details": "Indicates a failure with the `approver` of a token to be approved. Used in approvals.",
          "params": {
            "approver": "Address initiating an approval operation."
          }
        }
      ],
      "ERC20InvalidReceiver(address)": [
        {
          "details": "Indicates a failure with the token `receiver`. Used in transfers.",
          "params": {
            "receiver": "Address to which tokens are being transferred."
          }
        }
      ],
      "ERC20InvalidSender(address)": [
        {
          "details": "Indicates a failure with the token `sender`. Used in transfers.",
          "params": {
            "sender": "Address whose tokens are being transferred."
          }
        }
      ],
      "ERC20InvalidSpender(address)": [
        {
          "details": "Indicates a failure with the `spender` to be approved. Used in approvals.",
          "params": {
            "spender": "Address that may be allowed to operate on tokens without being their owner."
          }
        }
      ],
      "ERC4626ExceededMaxDeposit(address,uint256,uint256)": [
        {
          "details": "Attempted to deposit more assets than the max amount for `receiver`."
        }
      ],
      "ERC4626ExceededMaxMint(address,uint256,uint256)": [
        {
          "details": "Attempted to mint more shares than the max amount for `receiver`."
        }
      ],
      "ERC4626ExceededMaxRedeem(address,uint256,uint256)": [
        {
          "details": "Attempted to redeem more shares than the max amount for `receiver`."
        }
      ],
      "ERC4626ExceededMaxWithdraw(address,uint256,uint256)": [
        {
          "details": "Attempted to withdraw more assets than the max amount for `receiver`."
        }
      ],
      "InvalidInitialization()": [
        {
          "details": "The contract is already initialized."
        }
      ],
      "NotInitializing()": [
        {
          "details": "The contract is not initializing."
        }
      ],
      "ReentrancyGuardReentrantCall()": [
        {
          "details": "Unauthorized reentrant call."
        }
      ]
    },
    "events": {
      "Approval(address,address,uint256)": {
        "details": "Emitted when the allowance of a `spender` for an `owner` is set by a call to {approve}. `value` is the new allowance."
      },
      "Initialized(uint64)": {
        "details": "Triggered when the contract has been initialized or reinitialized."
      },
      "RoleAdminChanged(bytes32,bytes32,bytes32)": {
        "details": "Emitted when `newAdminRole` is set as ``role``'s admin role, replacing `previousAdminRole` `DEFAULT_ADMIN_ROLE` is the starting admin for all roles, despite {RoleAdminChanged} not being emitted to signal this."
      },
      "RoleGranted(bytes32,address,address)": {
        "details": "Emitted when `account` is granted `role`. `sender` is the account that originated the contract call. This account bears the admin role (for the granted role). Expected in cases where the role was granted using the internal {AccessControl-_grantRole}."
      },
      "RoleRevoked(bytes32,address,address)": {
        "details": "Emitted when `account` is revoked `role`. `sender` is the account that originated the contract call:   - if using `revokeRole`, it is the admin role bearer   - if using `renounceRole`, it is the role bearer (i.e. `account`)"
      },
      "Transfer(address,address,uint256)": {
        "details": "Emitted when `value` tokens are moved from one account (`from`) to another (`to`). Note that `value` may be zero."
      }
    },
    "kind": "dev",
    "methods": {
      "allowance(address,address)": {
        "details": "See {IERC20-allowance}."
      },
      "approve(address,uint256)": {
        "details": "See {IERC20-approve}. NOTE: If `value` is the maximum `uint256`, the allowance is not updated on `transferFrom`. This is semantically equivalent to an infinite approval. Requirements: - `spender` cannot be the zero address."
      },
      "balanceOf(address)": {
        "details": "See {IERC20-balanceOf}."
      },
      "getRoleAdmin(bytes32)": {
        "details": "Returns the admin role that controls `role`. See {grantRole} and {revokeRole}. To change a role's admin, use {_setRoleAdmin}."
      },
      "grantRole(bytes32,address)": {
        "details": "Grants `role` to `account`. If `account` had not been already granted `role`, emits a {RoleGranted} event. Requirements: - the caller must have ``role``'s admin role. May emit a {RoleGranted} event."
      },
      "hasRole(bytes32,address)": {
        "details": "Returns `true` if `account` has been granted `role`."
      },
      "name()": {
        "details": "Returns the name of the token."
      },
      "renounceRole(bytes32,address)": {
        "details": "Revokes `role` from the calling account. Roles are often managed via {grantRole} and {revokeRole}: this function's purpose is to provide a mechanism for accounts to lose their privileges if they are compromised (such as when a trusted device is misplaced). If the calling account had been revoked `role`, emits a {RoleRevoked} event. Requirements: - the caller must be `callerConfirmation`. May emit a {RoleRevoked} event."
      },
      "revokeRole(bytes32,address)": {
        "details": "Revokes `role` from `account`. If `account` had been granted `role`, emits a {RoleRevoked} event. Requirements: - the caller must have ``role``'s admin role. May emit a {RoleRevoked} event."
      },
      "supportsInterface(bytes4)": {
        "details": "See {IERC165-supportsInterface}."
      },
      "symbol()": {
        "details": "Returns the symbol of the token, usually a shorter version of the name."
      },
      "transfer(address,uint256)": {
        "details": "See {IERC20-transfer}. Requirements: - `to` cannot be the zero address. - the caller must have a balance of at least `value`."
      },
      "transferFrom(address,address,uint256)": {
        "details": "See {IERC20-transferFrom}. Skips emitting an {Approval} event indicating an allowance update. This is not required by the ERC. See {xref-ERC20-_approve-address-address-uint256-bool-}[_approve]. NOTE: Does not update the allowance if the current allowance is the maximum `uint256`. Requirements: - `from` and `to` cannot be the zero address. - `from` must have a balance of at least `value`. - the caller must have allowance for ``from``'s tokens of at least `value`."
      }
    },
    "version": 1
  },
  "userdoc": {
    "kind": "user",
    "methods": {},
    "version": 1
  },
  "storageLayout": {
    "storage": [
      {
        "astId": 9678,
        "contract": "contracts/protocol/Vault.sol:Vault",
        "label": "vaultData",
        "offset": 0,
        "slot": "0",
        "type": "t_struct(VaultData)14113_storage"
      }
    ],
    "types": {
      "t_address": {
        "encoding": "inplace",
        "label": "address",
        "numberOfBytes": "20"
      },
      "t_array(t_address)dyn_storage": {
        "base": "t_address",
        "encoding": "dynamic_array",
        "label": "address[]",
        "numberOfBytes": "32"
      },
      "t_bool": {
        "encoding": "inplace",
        "label": "bool",
        "numberOfBytes": "1"
      },
      "t_mapping(t_address,t_struct(StrategyData)14070_storage)": {
        "encoding": "mapping",
        "key": "t_address",
        "label": "mapping(address => struct DataTypes.StrategyData)",
        "numberOfBytes": "32",
        "value": "t_struct(StrategyData)14070_storage"
      },
      "t_struct(StrategyData)14070_storage": {
        "encoding": "inplace",
        "label": "struct DataTypes.StrategyData",
        "members": [
          {
            "astId": 14063,
            "contract": "contracts/protocol/Vault.sol:Vault",
            "label": "activation",
            "offset": 0,
            "slot": "0",
            "type": "t_uint256"
          },
          {
            "astId": 14065,
            "contract": "contracts/protocol/Vault.sol:Vault",
            "label": "lastReport",
            "offset": 0,
            "slot": "1",
            "type": "t_uint256"
          },
          {
            "astId": 14067,
            "contract": "contracts/protocol/Vault.sol:Vault",
            "label": "currentDebt",
            "offset": 0,
            "slot": "2",
            "type": "t_uint256"
          },
          {
            "astId": 14069,
            "contract": "contracts/protocol/Vault.sol:Vault",
            "label": "maxDebt",
            "offset": 0,
            "slot": "3",
            "type": "t_uint256"
          }
        ],
        "numberOfBytes": "128"
      },
      "t_struct(VaultData)14113_storage": {
        "encoding": "inplace",
        "label": "struct DataTypes.VaultData",
        "members": [
          {
            "astId": 14072,
            "contract": "contracts/protocol/Vault.sol:Vault",
            "label": "addressVault",
            "offset": 0,
            "slot": "0",
            "type": "t_address"
          },
          {
            "astId": 14074,
            "contract": "contracts/protocol/Vault.sol:Vault",
            "label": "totalDebt",
            "offset": 0,
            "slot": "1",
            "type": "t_uint256"
          },
          {
            "astId": 14076,
            "contract": "contracts/protocol/Vault.sol:Vault",
            "label": "totalIdle",
            "offset": 0,
            "slot": "2",
            "type": "t_uint256"
          },
          {
            "astId": 14081,
            "contract": "contracts/protocol/Vault.sol:Vault",
            "label": "strategies",
            "offset": 0,
            "slot": "3",
            "type": "t_mapping(t_address,t_struct(StrategyData)14070_storage)"
          },
          {
            "astId": 14084,
            "contract": "contracts/protocol/Vault.sol:Vault",
            "label": "defaultQueue",
            "offset": 0,
            "slot": "4",
            "type": "t_array(t_address)dyn_storage"
          },
          {
            "astId": 14086,
            "contract": "contracts/protocol/Vault.sol:Vault",
            "label": "useDefaultQueue",
            "offset": 0,
            "slot": "5",
            "type": "t_bool"
          },
          {
            "astId": 14088,
            "contract": "contracts/protocol/Vault.sol:Vault",
            "label": "autoAllocate",
            "offset": 1,
            "slot": "5",
            "type": "t_bool"
          },
          {
            "astId": 14090,
            "contract": "contracts/protocol/Vault.sol:Vault",
            "label": "minimumTotalIdle",
            "offset": 0,
            "slot": "6",
            "type": "t_uint256"
          },
          {
            "astId": 14092,
            "contract": "contracts/protocol/Vault.sol:Vault",
            "label": "depositLimit",
            "offset": 0,
            "slot": "7",
            "type": "t_uint256"
          },
          {
            "astId": 14094,
            "contract": "contracts/protocol/Vault.sol:Vault",
            "label": "profitMaxUnlockTime",
            "offset": 0,
            "slot": "8",
            "type": "t_uint256"
          },
          {
            "astId": 14096,
            "contract": "contracts/protocol/Vault.sol:Vault",
            "label": "fullProfitUnlockDate",
            "offset": 0,
            "slot": "9",
            "type": "t_uint256"
          },
          {
            "astId": 14098,
            "contract": "contracts/protocol/Vault.sol:Vault",
            "label": "profitUnlockingRate",
            "offset": 0,
            "slot": "10",
            "type": "t_uint256"
          },
          {
            "astId": 14100,
            "contract": "contracts/protocol/Vault.sol:Vault",
            "label": "lastProfitUpdate",
            "offset": 0,
            "slot": "11",
            "type": "t_uint256"
          },
          {
            "astId": 14102,
            "contract": "contracts/protocol/Vault.sol:Vault",
            "label": "accountant",
            "offset": 0,
            "slot": "12",
            "type": "t_address"
          },
          {
            "astId": 14104,
            "contract": "contracts/protocol/Vault.sol:Vault",
            "label": "depositLimitModule",
            "offset": 0,
            "slot": "13",
            "type": "t_address"
          },
          {
            "astId": 14106,
            "contract": "contracts/protocol/Vault.sol:Vault",
            "label": "withdrawLimitModule",
            "offset": 0,
            "slot": "14",
            "type": "t_address"
          },
          {
            "astId": 14108,
            "contract": "contracts/protocol/Vault.sol:Vault",
            "label": "feeRecipient",
            "offset": 0,
            "slot": "15",
            "type": "t_address"
          },
          {
            "astId": 14110,
            "contract": "contracts/protocol/Vault.sol:Vault",
            "label": "managementFee",
            "offset": 0,
            "slot": "16",
            "type": "t_uint256"
          },
          {
            "astId": 14112,
            "contract": "contracts/protocol/Vault.sol:Vault",
            "label": "lastTimeTakeManagementFee",
            "offset": 0,
            "slot": "17",
            "type": "t_uint256"
          }
        ],
        "numberOfBytes": "576"
      },
      "t_uint256": {
        "encoding": "inplace",
        "label": "uint256",
        "numberOfBytes": "32"
      }
    }
  }
}